{
  "_format": "hh-sol-artifact-1",
  "contractName": "ERC721Auction",
  "sourceName": "contracts/ERC721Auction.sol",
  "abi": [
    {
      "inputs": [
        {
          "internalType": "address",
          "name": "erc721TokenAddress",
          "type": "address"
        },
        {
          "internalType": "uint256",
          "name": "_nftTokenId",
          "type": "uint256"
        },
        {
          "internalType": "uint256",
          "name": "_reservePrice",
          "type": "uint256"
        },
        {
          "internalType": "uint256",
          "name": "_numBlocksAuctionOpen",
          "type": "uint256"
        },
        {
          "internalType": "uint256",
          "name": "_offerPriceDecrement",
          "type": "uint256"
        }
      ],
      "stateMutability": "nonpayable",
      "type": "constructor"
    },
    {
      "anonymous": false,
      "inputs": [
        {
          "indexed": true,
          "internalType": "address",
          "name": "winner",
          "type": "address"
        },
        {
          "indexed": false,
          "internalType": "uint256",
          "name": "winningBid",
          "type": "uint256"
        }
      ],
      "name": "AuctionEnded",
      "type": "event"
    },
    {
      "anonymous": false,
      "inputs": [
        {
          "indexed": false,
          "internalType": "uint256",
          "name": "startPrice",
          "type": "uint256"
        }
      ],
      "name": "AuctionStarted",
      "type": "event"
    },
    {
      "anonymous": false,
      "inputs": [
        {
          "indexed": true,
          "internalType": "address",
          "name": "refundedBidder",
          "type": "address"
        },
        {
          "indexed": false,
          "internalType": "uint256",
          "name": "amount",
          "type": "uint256"
        }
      ],
      "name": "BidRefunded",
      "type": "event"
    },
    {
      "anonymous": false,
      "inputs": [
        {
          "indexed": true,
          "internalType": "address",
          "name": "bidder",
          "type": "address"
        },
        {
          "indexed": false,
          "internalType": "uint256",
          "name": "amount",
          "type": "uint256"
        }
      ],
      "name": "NewBid",
      "type": "event"
    },
    {
      "anonymous": false,
      "inputs": [
        {
          "indexed": true,
          "internalType": "address",
          "name": "previousOwner",
          "type": "address"
        },
        {
          "indexed": true,
          "internalType": "address",
          "name": "newOwner",
          "type": "address"
        }
      ],
      "name": "OwnershipTransferred",
      "type": "event"
    },
    {
      "inputs": [],
      "name": "auctionDuration",
      "outputs": [
        {
          "internalType": "uint256",
          "name": "",
          "type": "uint256"
        }
      ],
      "stateMutability": "view",
      "type": "function"
    },
    {
      "inputs": [],
      "name": "auctionEnded",
      "outputs": [
        {
          "internalType": "bool",
          "name": "",
          "type": "bool"
        }
      ],
      "stateMutability": "view",
      "type": "function"
    },
    {
      "inputs": [],
      "name": "bid",
      "outputs": [],
      "stateMutability": "payable",
      "type": "function"
    },
    {
      "inputs": [],
      "name": "endAuction",
      "outputs": [],
      "stateMutability": "nonpayable",
      "type": "function"
    },
    {
      "inputs": [],
      "name": "getCurrentPrice",
      "outputs": [
        {
          "internalType": "uint256",
          "name": "",
          "type": "uint256"
        }
      ],
      "stateMutability": "view",
      "type": "function"
    },
    {
      "inputs": [],
      "name": "highestBid",
      "outputs": [
        {
          "internalType": "uint256",
          "name": "",
          "type": "uint256"
        }
      ],
      "stateMutability": "view",
      "type": "function"
    },
    {
      "inputs": [],
      "name": "highestBidder",
      "outputs": [
        {
          "internalType": "address",
          "name": "",
          "type": "address"
        }
      ],
      "stateMutability": "view",
      "type": "function"
    },
    {
      "inputs": [],
      "name": "nftToken",
      "outputs": [
        {
          "internalType": "contract IERC721",
          "name": "",
          "type": "address"
        }
      ],
      "stateMutability": "view",
      "type": "function"
    },
    {
      "inputs": [],
      "name": "nftTokenId",
      "outputs": [
        {
          "internalType": "uint256",
          "name": "",
          "type": "uint256"
        }
      ],
      "stateMutability": "view",
      "type": "function"
    },
    {
      "inputs": [],
      "name": "numBlocksAuctionOpen",
      "outputs": [
        {
          "internalType": "uint256",
          "name": "",
          "type": "uint256"
        }
      ],
      "stateMutability": "view",
      "type": "function"
    },
    {
      "inputs": [],
      "name": "offerPriceDecrement",
      "outputs": [
        {
          "internalType": "uint256",
          "name": "",
          "type": "uint256"
        }
      ],
      "stateMutability": "view",
      "type": "function"
    },
    {
      "inputs": [],
      "name": "owner",
      "outputs": [
        {
          "internalType": "address",
          "name": "",
          "type": "address"
        }
      ],
      "stateMutability": "view",
      "type": "function"
    },
    {
      "inputs": [],
      "name": "renounceOwnership",
      "outputs": [],
      "stateMutability": "nonpayable",
      "type": "function"
    },
    {
      "inputs": [],
      "name": "reservePrice",
      "outputs": [
        {
          "internalType": "uint256",
          "name": "",
          "type": "uint256"
        }
      ],
      "stateMutability": "view",
      "type": "function"
    },
    {
      "inputs": [],
      "name": "startBlock",
      "outputs": [
        {
          "internalType": "uint256",
          "name": "",
          "type": "uint256"
        }
      ],
      "stateMutability": "view",
      "type": "function"
    },
    {
      "inputs": [],
      "name": "startPrice",
      "outputs": [
        {
          "internalType": "uint256",
          "name": "",
          "type": "uint256"
        }
      ],
      "stateMutability": "view",
      "type": "function"
    },
    {
      "inputs": [
        {
          "internalType": "address",
          "name": "newOwner",
          "type": "address"
        }
      ],
      "name": "transferOwnership",
      "outputs": [],
      "stateMutability": "nonpayable",
      "type": "function"
    }
  ],
  "bytecode": "0x60806040523480156200001157600080fd5b506040516200211938038062002119833981810160405281019062000037919062000596565b620000576200004b6200049960201b60201c565b620004a160201b60201c565b620000736765c86cb839fb970c60c01b6200056560201b60201c565b6200008f67d70b6e81ebd033cd60c01b6200056560201b60201c565b620000ab67f33c4c61e8121e9560c01b6200056560201b60201c565b620000c767962220d8f73d9f1860c01b6200056560201b60201c565b600083116200010d576040517f08c379a000000000000000000000000000000000000000000000000000000000815260040162000104906200069e565b60405180910390fd5b6200012967b1d6b3d78cc85c0c60c01b6200056560201b60201c565b62000145677ec768cade66a5b360c01b6200056560201b60201c565b6200016167af348d9d3d207b8960c01b6200056560201b60201c565b6200017d67775823171a359c7760c01b6200056560201b60201c565b60008111620001c3576040517f08c379a0000000000000000000000000000000000000000000000000000000008152600401620001ba90620006c0565b60405180910390fd5b620001df675df21eabac6e3a0460c01b6200056560201b60201c565b620001fb67f4a9a22193aecc7160c01b6200056560201b60201c565b6200021767fc44b6617d9d462360c01b6200056560201b60201c565b6200023367d9fe41d5873b31c560c01b6200056560201b60201c565b6000821162000279576040517f08c379a00000000000000000000000000000000000000000000000000000000081526004016200027090620006e2565b60405180910390fd5b6200029567cbc9f0356b5e153460c01b6200056560201b60201c565b620002b1677f6ef94c8bd3c18c60c01b6200056560201b60201c565b84600160006101000a81548173ffffffffffffffffffffffffffffffffffffffff021916908373ffffffffffffffffffffffffffffffffffffffff1602179055506200030e670799047be55eae5c60c01b6200056560201b60201c565b8360028190555062000331679356c4cec86185e160c01b6200056560201b60201c565b826003819055506200035467cf131475a777605760c01b6200056560201b60201c565b816004819055506200037767a2c5b12bd775252560c01b6200056560201b60201c565b806006819055506200039a671eb89bbbb0200c9a60c01b6200056560201b60201c565b600654600454620003ac91906200078f565b600354620003bb919062000732565b600881905550620003dd67d225e17eced5cf0860c01b6200056560201b60201c565b4360098190555062000400670950051e18a605ae60c01b6200056560201b60201c565b6000600a60146101000a81548160ff0219169083151502179055506200043767b1593994d238083960c01b6200056560201b60201c565b62000453676d0a634d70e60a9f60c01b6200056560201b60201c565b7f1bb96dff6ab5005aff98cdc0cf176bb7d8e0423cb48e02217d35b042cec81e9f60085460405162000486919062000704565b60405180910390a150505050506200097e565b600033905090565b60008060009054906101000a900473ffffffffffffffffffffffffffffffffffffffff169050816000806101000a81548173ffffffffffffffffffffffffffffffffffffffff021916908373ffffffffffffffffffffffffffffffffffffffff1602179055508173ffffffffffffffffffffffffffffffffffffffff168173ffffffffffffffffffffffffffffffffffffffff167f8be0079c531659141344cd1fd0a4f28419497f9722a3daafe3b4186f6b6457e060405160405180910390a35050565b50565b60008151905062000579816200094a565b92915050565b600081519050620005908162000964565b92915050565b600080600080600060a08688031215620005af57600080fd5b6000620005bf8882890162000568565b9550506020620005d2888289016200057f565b9450506040620005e5888289016200057f565b9350506060620005f8888289016200057f565b92505060806200060b888289016200057f565b9150509295509295909350565b60006200062760268362000721565b915062000634826200085d565b604082019050919050565b60006200064e602e8362000721565b91506200065b82620008ac565b604082019050919050565b600062000675602b8362000721565b91506200068282620008fb565b604082019050919050565b620006988162000824565b82525050565b60006020820190508181036000830152620006b98162000618565b9050919050565b60006020820190508181036000830152620006db816200063f565b9050919050565b60006020820190508181036000830152620006fd8162000666565b9050919050565b60006020820190506200071b60008301846200068d565b92915050565b600082825260208201905092915050565b60006200073f8262000824565b91506200074c8362000824565b9250827fffffffffffffffffffffffffffffffffffffffffffffffffffffffffffffffff038211156200078457620007836200082e565b5b828201905092915050565b60006200079c8262000824565b9150620007a98362000824565b9250817fffffffffffffffffffffffffffffffffffffffffffffffffffffffffffffffff0483118215151615620007e557620007e46200082e565b5b828202905092915050565b6000620007fd8262000804565b9050919050565b600073ffffffffffffffffffffffffffffffffffffffff82169050919050565b6000819050919050565b7f4e487b7100000000000000000000000000000000000000000000000000000000600052601160045260246000fd5b7f526573657276652070726963652073686f756c6420626520677265617465722060008201527f7468616e20300000000000000000000000000000000000000000000000000000602082015250565b7f4f666665722070726963652064656372656d656e742073686f756c642062652060008201527f67726561746572207468616e2030000000000000000000000000000000000000602082015250565b7f41756374696f6e206d757374206265206f70656e20666f72206174206c65617360008201527f74206f6e6520626c6f636b000000000000000000000000000000000000000000602082015250565b6200095581620007f0565b81146200096157600080fd5b50565b6200096f8162000824565b81146200097b57600080fd5b50565b61178b806200098e6000396000f3fe6080604052600436106100fe5760003560e01c806391f9015711610095578063db2e1eed11610064578063db2e1eed146102d2578063eb91d37e146102fd578063f1a9af8914610328578063f2fde38b14610353578063fe67a54b1461037c576100fe565b806391f9015714610226578063d06fcba814610251578063d3642a881461027c578063d57bde79146102a7576100fe565b8063715018a6116100d1578063715018a61461018e5780637e830574146101a557806386433374146101d05780638da5cb5b146101fb576100fe565b80630cbf54c8146101035780631998aeef1461012e5780633103ea621461013857806348cd4cb114610163575b600080fd5b34801561010f57600080fd5b50610118610393565b60405161012591906113ff565b60405180910390f35b610136610399565b005b34801561014457600080fd5b5061014d610910565b60405161015a91906113ff565b60405180910390f35b34801561016f57600080fd5b50610178610916565b60405161018591906113ff565b60405180910390f35b34801561019a57600080fd5b506101a361091c565b005b3480156101b157600080fd5b506101ba610930565b6040516101c791906113ff565b60405180910390f35b3480156101dc57600080fd5b506101e5610936565b6040516101f291906112c9565b60405180910390f35b34801561020757600080fd5b50610210610949565b60405161021d9190611277565b60405180910390f35b34801561023257600080fd5b5061023b610972565b6040516102489190611277565b60405180910390f35b34801561025d57600080fd5b50610266610998565b60405161027391906112e4565b60405180910390f35b34801561028857600080fd5b506102916109be565b60405161029e91906113ff565b60405180910390f35b3480156102b357600080fd5b506102bc6109c4565b6040516102c991906113ff565b60405180910390f35b3480156102de57600080fd5b506102e76109ca565b6040516102f491906113ff565b60405180910390f35b34801561030957600080fd5b506103126109d0565b60405161031f91906113ff565b60405180910390f35b34801561033457600080fd5b5061033d610b3f565b60405161034a91906113ff565b60405180910390f35b34801561035f57600080fd5b5061037a600480360381019061037591906110fa565b610b45565b005b34801561038857600080fd5b50610391610bc9565b005b60055481565b6103ad6754bad7fb78827c8060c01b610f86565b6103c167b1a4f7d58971e26a60c01b610f86565b6103d56759a34c320e1001d260c01b610f86565b6103e9674c32f30ab6661d0f60c01b610f86565b600a60149054906101000a900460ff1615610439576040517f08c379a00000000000000000000000000000000000000000000000000000000081526004016104309061135f565b60405180910390fd5b61044d674d20b69a6532ec5460c01b610f86565b6104616790c956d07f2a6ab160c01b610f86565b6104756707230878f07daaa460c01b610f86565b6104896774e53cacff86310c60c01b610f86565b600454600954610499919061142b565b4311156104db576040517f08c379a00000000000000000000000000000000000000000000000000000000081526004016104d2906113bf565b60405180910390fd5b6104ef67b1742b55d427b47060c01b610f86565b61050367cb801e4c515073e460c01b610f86565b61051767353c3d571692fe7960c01b610f86565b61052b67de0354d55669f22060c01b610f86565b6105336109d0565b341015610575576040517f08c379a000000000000000000000000000000000000000000000000000000000815260040161056c906113df565b60405180910390fd5b61058967c511e326a06a7c3060c01b610f86565b61059d67e253479cbcf1fa0160c01b610f86565b6105b1670a0ec5db5823d9e260c01b610f86565b6105c567a4b144333d631d3d60c01b610f86565b6105cd610949565b73ffffffffffffffffffffffffffffffffffffffff163373ffffffffffffffffffffffffffffffffffffffff16141561063b576040517f08c379a0000000000000000000000000000000000000000000000000000000008152600401610632906112ff565b60405180910390fd5b61064f67c746dc1e4e6b5a9460c01b610f86565b61066367ba2f539d0fefff1760c01b610f86565b610677674b4ffb1ff3f9d61860c01b610f86565b600073ffffffffffffffffffffffffffffffffffffffff16600a60009054906101000a900473ffffffffffffffffffffffffffffffffffffffff1673ffffffffffffffffffffffffffffffffffffffff1614610813576106e16790887cf95ab9aff260c01b610f86565b6106f56765c9dacba1a4d33e60c01b610f86565b61070967ff7e12cbe3ed266b60c01b610f86565b600a60009054906101000a900473ffffffffffffffffffffffffffffffffffffffff1673ffffffffffffffffffffffffffffffffffffffff166108fc6007549081150290604051600060405180830381858888f19350505050158015610773573d6000803e3d6000fd5b506107886752300ccffe9cccb960c01b610f86565b61079c6763cca01fffad56c660c01b610f86565b600a60009054906101000a900473ffffffffffffffffffffffffffffffffffffffff1673ffffffffffffffffffffffffffffffffffffffff167f8377883650d2137d6e6d67bcf2dbb9b1dab287d68240a17ff910b9fb7a0ad5ff60075460405161080691906113ff565b60405180910390a2610828565b61082767bfccffe27ffaa1d660c01b610f86565b5b61083c67aa5a36b11012bd7560c01b610f86565b346007819055506108576794465f809bdb92f460c01b610f86565b33600a60006101000a81548173ffffffffffffffffffffffffffffffffffffffff021916908373ffffffffffffffffffffffffffffffffffffffff1602179055506108ac676ba64f8e8e965b7860c01b610f86565b6108c0671ec19d6ae014322560c01b610f86565b3373ffffffffffffffffffffffffffffffffffffffff167fdd0b6c6a77960e2066c96171b4d7ac9e8b4c184011f38544afa36a5bb63ec59f3460405161090691906113ff565b60405180910390a2565b60045481565b60095481565b610924610f89565b61092e6000611007565b565b60025481565b600a60149054906101000a900460ff1681565b60008060009054906101000a900473ffffffffffffffffffffffffffffffffffffffff16905090565b600a60009054906101000a900473ffffffffffffffffffffffffffffffffffffffff1681565b600160009054906101000a900473ffffffffffffffffffffffffffffffffffffffff1681565b60065481565b60075481565b60035481565b60006109e667b6d3355600a0d21260c01b610f86565b6109fa67cc9739f3877afbd360c01b610f86565b610a0e679ad17efe66031b0560c01b610f86565b600954431115610afa57610a2c67698423d09f2b833c60c01b610f86565b610a4067ec77afaad27cd0c760c01b610f86565b610a5467ea41e081f2d0bb9960c01b610f86565b600060095443610a6491906114db565b600654610a719190611481565b9050610a87675ed8aabe3939427d60c01b610f86565b610a9b67ae292a5275194d5660c01b610f86565b80600854118015610abc5750610abb6741f03c8c25879b8d60c01b6110cb565b5b80610ad75750610ad667495b805a8c50b36760c01b6110d6565b5b610ae357600354610af2565b80600854610af191906114db565b5b915050610b3c565b610b0e671ee4dd7679a1cad460c01b610f86565b610b22672a6ab76fa480eff660c01b610f86565b610b366705a7f6b40bdc358e60c01b610f86565b60085490505b90565b60085481565b610b4d610f89565b600073ffffffffffffffffffffffffffffffffffffffff168173ffffffffffffffffffffffffffffffffffffffff161415610bbd576040517f08c379a0000000000000000000000000000000000000000000000000000000008152600401610bb49061131f565b60405180910390fd5b610bc681611007565b50565b610bdd679b4d90f19106043e60c01b610f86565b610bf16721ce5881fad070aa60c01b610f86565b610c05675138f8eb1b6ad30760c01b610f86565b610c19672eacaaa6d22e1f8c60c01b610f86565b600a60149054906101000a900460ff1615610c69576040517f08c379a0000000000000000000000000000000000000000000000000000000008152600401610c609061133f565b60405180910390fd5b610c7d673dc947a77de21c8a60c01b610f86565b610c9167e1a29e3ba68c2dad60c01b610f86565b610ca56709ff89b42c20da4260c01b610f86565b610cb9671ed2c72da42a043660c01b610f86565b600073ffffffffffffffffffffffffffffffffffffffff16600a60009054906101000a900473ffffffffffffffffffffffffffffffffffffffff1673ffffffffffffffffffffffffffffffffffffffff161415610d4b576040517f08c379a0000000000000000000000000000000000000000000000000000000008152600401610d429061137f565b60405180910390fd5b610d5f677292397b3bfdc23160c01b610f86565b610d736758e167bfa101fd1260c01b610f86565b610d8767e0013da7fec7e1ac60c01b610f86565b610d8f610949565b73ffffffffffffffffffffffffffffffffffffffff166108fc6007549081150290604051600060405180830381858888f19350505050158015610dd6573d6000803e3d6000fd5b50610deb67b3698b723151206d60c01b610f86565b610dff67f6920362b026aebe60c01b610f86565b600160009054906101000a900473ffffffffffffffffffffffffffffffffffffffff1673ffffffffffffffffffffffffffffffffffffffff166323b872dd610e45610949565b600a60009054906101000a900473ffffffffffffffffffffffffffffffffffffffff166002546040518463ffffffff1660e01b8152600401610e8993929190611292565b600060405180830381600087803b158015610ea357600080fd5b505af1158015610eb7573d6000803e3d6000fd5b50505050610ecf67664cedeb4f826a7b60c01b610f86565b6001600a60146101000a81548160ff021916908315150217905550610efe675c859938123ec0ce60c01b610f86565b610f126779cf3f2905e0ba5a60c01b610f86565b600a60009054906101000a900473ffffffffffffffffffffffffffffffffffffffff1673ffffffffffffffffffffffffffffffffffffffff167fdaec4582d5d9595688c8c98545fdd1c696d41c6aeaeb636737e84ed2f5c00eda600754604051610f7c91906113ff565b60405180910390a2565b50565b610f916110dd565b73ffffffffffffffffffffffffffffffffffffffff16610faf610949565b73ffffffffffffffffffffffffffffffffffffffff1614611005576040517f08c379a0000000000000000000000000000000000000000000000000000000008152600401610ffc9061139f565b60405180910390fd5b565b60008060009054906101000a900473ffffffffffffffffffffffffffffffffffffffff169050816000806101000a81548173ffffffffffffffffffffffffffffffffffffffff021916908373ffffffffffffffffffffffffffffffffffffffff1602179055508173ffffffffffffffffffffffffffffffffffffffff168173ffffffffffffffffffffffffffffffffffffffff167f8be0079c531659141344cd1fd0a4f28419497f9722a3daafe3b4186f6b6457e060405160405180910390a35050565b600060019050919050565b6000919050565b600033905090565b6000813590506110f48161173e565b92915050565b60006020828403121561110c57600080fd5b600061111a848285016110e5565b91505092915050565b61112c8161150f565b82525050565b61113b81611521565b82525050565b61114a81611557565b82525050565b600061115d60188361141a565b9150611168826115aa565b602082019050919050565b600061118060268361141a565b915061118b826115d3565b604082019050919050565b60006111a360198361141a565b91506111ae82611622565b602082019050919050565b60006111c660118361141a565b91506111d18261164b565b602082019050919050565b60006111e960108361141a565b91506111f482611674565b602082019050919050565b600061120c60208361141a565b91506112178261169d565b602082019050919050565b600061122f60118361141a565b915061123a826116c6565b602082019050919050565b600061125260238361141a565b915061125d826116ef565b604082019050919050565b6112718161154d565b82525050565b600060208201905061128c6000830184611123565b92915050565b60006060820190506112a76000830186611123565b6112b46020830185611123565b6112c16040830184611268565b949350505050565b60006020820190506112de6000830184611132565b92915050565b60006020820190506112f96000830184611141565b92915050565b6000602082019050818103600083015261131881611150565b9050919050565b6000602082019050818103600083015261133881611173565b9050919050565b6000602082019050818103600083015261135881611196565b9050919050565b60006020820190508181036000830152611378816111b9565b9050919050565b60006020820190508181036000830152611398816111dc565b9050919050565b600060208201905081810360008301526113b8816111ff565b9050919050565b600060208201905081810360008301526113d881611222565b9050919050565b600060208201905081810360008301526113f881611245565b9050919050565b60006020820190506114146000830184611268565b92915050565b600082825260208201905092915050565b60006114368261154d565b91506114418361154d565b9250827fffffffffffffffffffffffffffffffffffffffffffffffffffffffffffffffff038211156114765761147561157b565b5b828201905092915050565b600061148c8261154d565b91506114978361154d565b9250817fffffffffffffffffffffffffffffffffffffffffffffffffffffffffffffffff04831182151516156114d0576114cf61157b565b5b828202905092915050565b60006114e68261154d565b91506114f18361154d565b9250828210156115045761150361157b565b5b828203905092915050565b600061151a8261152d565b9050919050565b60008115159050919050565b600073ffffffffffffffffffffffffffffffffffffffff82169050919050565b6000819050919050565b600061156282611569565b9050919050565b60006115748261152d565b9050919050565b7f4e487b7100000000000000000000000000000000000000000000000000000000600052601160045260246000fd5b7f4f776e65722063616e6e6f7420706c6163652061206269640000000000000000600082015250565b7f4f776e61626c653a206e6577206f776e657220697320746865207a65726f206160008201527f6464726573730000000000000000000000000000000000000000000000000000602082015250565b7f41756374696f6e2068617320616c726561647920656e64656400000000000000600082015250565b7f41756374696f6e2068617320656e646564000000000000000000000000000000600082015250565b7f4e6f206269647320726563656976656400000000000000000000000000000000600082015250565b7f4f776e61626c653a2063616c6c6572206973206e6f7420746865206f776e6572600082015250565b7f41756374696f6e20697320636c6f736564000000000000000000000000000000600082015250565b7f426964206973206c6f776572207468616e20746865207265736572766520707260008201527f6963650000000000000000000000000000000000000000000000000000000000602082015250565b6117478161150f565b811461175257600080fd5b5056fea26469706673582212200a0d489e9c74db64a4ccd8066d492ac8120c888d2550eaa75deff58d28bab7dc64736f6c63430008040033",
  "linkReferences": {},
  "deployedLinkReferences": {}
}