{
  "_format": "hh-sol-artifact-1",
  "contractName": "MockERC721",
  "sourceName": "contracts/MockERC721.sol",
  "abi": [
    {
      "inputs": [
        {
          "internalType": "string",
          "name": "name",
          "type": "string"
        },
        {
          "internalType": "string",
          "name": "symbol",
          "type": "string"
        }
      ],
      "stateMutability": "nonpayable",
      "type": "constructor"
    },
    {
      "anonymous": false,
      "inputs": [
        {
          "indexed": true,
          "internalType": "address",
          "name": "owner",
          "type": "address"
        },
        {
          "indexed": true,
          "internalType": "address",
          "name": "approved",
          "type": "address"
        },
        {
          "indexed": true,
          "internalType": "uint256",
          "name": "tokenId",
          "type": "uint256"
        }
      ],
      "name": "Approval",
      "type": "event"
    },
    {
      "anonymous": false,
      "inputs": [
        {
          "indexed": true,
          "internalType": "address",
          "name": "owner",
          "type": "address"
        },
        {
          "indexed": true,
          "internalType": "address",
          "name": "operator",
          "type": "address"
        },
        {
          "indexed": false,
          "internalType": "bool",
          "name": "approved",
          "type": "bool"
        }
      ],
      "name": "ApprovalForAll",
      "type": "event"
    },
    {
      "anonymous": false,
      "inputs": [
        {
          "indexed": true,
          "internalType": "address",
          "name": "from",
          "type": "address"
        },
        {
          "indexed": true,
          "internalType": "address",
          "name": "to",
          "type": "address"
        },
        {
          "indexed": true,
          "internalType": "uint256",
          "name": "tokenId",
          "type": "uint256"
        }
      ],
      "name": "Transfer",
      "type": "event"
    },
    {
      "inputs": [
        {
          "internalType": "address",
          "name": "to",
          "type": "address"
        },
        {
          "internalType": "uint256",
          "name": "tokenId",
          "type": "uint256"
        }
      ],
      "name": "approve",
      "outputs": [],
      "stateMutability": "nonpayable",
      "type": "function"
    },
    {
      "inputs": [
        {
          "internalType": "address",
          "name": "owner",
          "type": "address"
        }
      ],
      "name": "balanceOf",
      "outputs": [
        {
          "internalType": "uint256",
          "name": "",
          "type": "uint256"
        }
      ],
      "stateMutability": "view",
      "type": "function"
    },
    {
      "inputs": [
        {
          "internalType": "uint256",
          "name": "tokenId",
          "type": "uint256"
        }
      ],
      "name": "burn",
      "outputs": [],
      "stateMutability": "nonpayable",
      "type": "function"
    },
    {
      "inputs": [
        {
          "internalType": "uint256",
          "name": "tokenId",
          "type": "uint256"
        }
      ],
      "name": "getApproved",
      "outputs": [
        {
          "internalType": "address",
          "name": "",
          "type": "address"
        }
      ],
      "stateMutability": "view",
      "type": "function"
    },
    {
      "inputs": [
        {
          "internalType": "address",
          "name": "owner",
          "type": "address"
        },
        {
          "internalType": "address",
          "name": "operator",
          "type": "address"
        }
      ],
      "name": "isApprovedForAll",
      "outputs": [
        {
          "internalType": "bool",
          "name": "",
          "type": "bool"
        }
      ],
      "stateMutability": "view",
      "type": "function"
    },
    {
      "inputs": [
        {
          "internalType": "address",
          "name": "to",
          "type": "address"
        },
        {
          "internalType": "uint256",
          "name": "tokenId",
          "type": "uint256"
        }
      ],
      "name": "mint",
      "outputs": [],
      "stateMutability": "nonpayable",
      "type": "function"
    },
    {
      "inputs": [],
      "name": "name",
      "outputs": [
        {
          "internalType": "string",
          "name": "",
          "type": "string"
        }
      ],
      "stateMutability": "view",
      "type": "function"
    },
    {
      "inputs": [
        {
          "internalType": "uint256",
          "name": "tokenId",
          "type": "uint256"
        }
      ],
      "name": "ownerOf",
      "outputs": [
        {
          "internalType": "address",
          "name": "",
          "type": "address"
        }
      ],
      "stateMutability": "view",
      "type": "function"
    },
    {
      "inputs": [
        {
          "internalType": "address",
          "name": "from",
          "type": "address"
        },
        {
          "internalType": "address",
          "name": "to",
          "type": "address"
        },
        {
          "internalType": "uint256",
          "name": "tokenId",
          "type": "uint256"
        }
      ],
      "name": "safeTransferFrom",
      "outputs": [],
      "stateMutability": "nonpayable",
      "type": "function"
    },
    {
      "inputs": [
        {
          "internalType": "address",
          "name": "from",
          "type": "address"
        },
        {
          "internalType": "address",
          "name": "to",
          "type": "address"
        },
        {
          "internalType": "uint256",
          "name": "tokenId",
          "type": "uint256"
        },
        {
          "internalType": "bytes",
          "name": "data",
          "type": "bytes"
        }
      ],
      "name": "safeTransferFrom",
      "outputs": [],
      "stateMutability": "nonpayable",
      "type": "function"
    },
    {
      "inputs": [
        {
          "internalType": "address",
          "name": "operator",
          "type": "address"
        },
        {
          "internalType": "bool",
          "name": "approved",
          "type": "bool"
        }
      ],
      "name": "setApprovalForAll",
      "outputs": [],
      "stateMutability": "nonpayable",
      "type": "function"
    },
    {
      "inputs": [
        {
          "internalType": "bytes4",
          "name": "interfaceId",
          "type": "bytes4"
        }
      ],
      "name": "supportsInterface",
      "outputs": [
        {
          "internalType": "bool",
          "name": "",
          "type": "bool"
        }
      ],
      "stateMutability": "view",
      "type": "function"
    },
    {
      "inputs": [],
      "name": "symbol",
      "outputs": [
        {
          "internalType": "string",
          "name": "",
          "type": "string"
        }
      ],
      "stateMutability": "view",
      "type": "function"
    },
    {
      "inputs": [
        {
          "internalType": "uint256",
          "name": "tokenId",
          "type": "uint256"
        }
      ],
      "name": "tokenURI",
      "outputs": [
        {
          "internalType": "string",
          "name": "",
          "type": "string"
        }
      ],
      "stateMutability": "view",
      "type": "function"
    },
    {
      "inputs": [
        {
          "internalType": "address",
          "name": "from",
          "type": "address"
        },
        {
          "internalType": "address",
          "name": "to",
          "type": "address"
        },
        {
          "internalType": "uint256",
          "name": "tokenId",
          "type": "uint256"
        }
      ],
      "name": "transferFrom",
      "outputs": [],
      "stateMutability": "nonpayable",
      "type": "function"
    }
  ],
  "bytecode": "0x60806040523480156200001157600080fd5b5060405162002ae638038062002ae68339818101604052810190620000379190620001b6565b818181600090805190602001906200005192919062000094565b5080600190805190602001906200006a92919062000094565b5050506200008967848eb3515e1f5c3860c01b6200009160201b60201c565b505062000399565b50565b828054620000a290620002be565b90600052602060002090601f016020900481019282620000c6576000855562000112565b82601f10620000e157805160ff191683800117855562000112565b8280016001018555821562000112579182015b8281111562000111578251825591602001919060010190620000f4565b5b50905062000121919062000125565b5090565b5b808211156200014057600081600090555060010162000126565b5090565b60006200015b620001558462000252565b62000229565b9050828152602081018484840111156200017457600080fd5b6200018184828562000288565b509392505050565b600082601f8301126200019b57600080fd5b8151620001ad84826020860162000144565b91505092915050565b60008060408385031215620001ca57600080fd5b600083015167ffffffffffffffff811115620001e557600080fd5b620001f38582860162000189565b925050602083015167ffffffffffffffff8111156200021157600080fd5b6200021f8582860162000189565b9150509250929050565b60006200023562000248565b9050620002438282620002f4565b919050565b6000604051905090565b600067ffffffffffffffff82111562000270576200026f62000359565b5b6200027b8262000388565b9050602081019050919050565b60005b83811015620002a85780820151818401526020810190506200028b565b83811115620002b8576000848401525b50505050565b60006002820490506001821680620002d757607f821691505b60208210811415620002ee57620002ed6200032a565b5b50919050565b620002ff8262000388565b810181811067ffffffffffffffff8211171562000321576200032062000359565b5b80604052505050565b7f4e487b7100000000000000000000000000000000000000000000000000000000600052602260045260246000fd5b7f4e487b7100000000000000000000000000000000000000000000000000000000600052604160045260246000fd5b6000601f19601f8301169050919050565b61273d80620003a96000396000f3fe608060405234801561001057600080fd5b50600436106100f55760003560e01c806342966c6811610097578063a22cb46511610066578063a22cb46514610282578063b88d4fde1461029e578063c87b56dd146102ba578063e985e9c5146102ea576100f5565b806342966c68146101e85780636352211e1461020457806370a082311461023457806395d89b4114610264576100f5565b8063095ea7b3116100d3578063095ea7b31461017857806323b872dd1461019457806340c10f19146101b057806342842e0e146101cc576100f5565b806301ffc9a7146100fa57806306fdde031461012a578063081812fc14610148575b600080fd5b610114600480360381019061010f9190611cae565b61031a565b6040516101219190612005565b60405180910390f35b6101326103fc565b60405161013f9190612020565b60405180910390f35b610162600480360381019061015d9190611d00565b61048e565b60405161016f9190611f9e565b60405180910390f35b610192600480360381019061018d9190611c72565b6104d4565b005b6101ae60048036038101906101a99190611b6c565b6105ec565b005b6101ca60048036038101906101c59190611c72565b61064c565b005b6101e660048036038101906101e19190611b6c565b610696565b005b61020260048036038101906101fd9190611d00565b6106b6565b005b61021e60048036038101906102199190611d00565b6106fe565b60405161022b9190611f9e565b60405180910390f35b61024e60048036038101906102499190611b07565b610785565b60405161025b91906121a2565b60405180910390f35b61026c61083d565b6040516102799190612020565b60405180910390f35b61029c60048036038101906102979190611c36565b6108cf565b005b6102b860048036038101906102b39190611bbb565b6108e5565b005b6102d460048036038101906102cf9190611d00565b610947565b6040516102e19190612020565b60405180910390f35b61030460048036038101906102ff9190611b30565b6109af565b6040516103119190612005565b60405180910390f35b60007f80ac58cd000000000000000000000000000000000000000000000000000000007bffffffffffffffffffffffffffffffffffffffffffffffffffffffff1916827bffffffffffffffffffffffffffffffffffffffffffffffffffffffff191614806103e557507f5b5e139f000000000000000000000000000000000000000000000000000000007bffffffffffffffffffffffffffffffffffffffffffffffffffffffff1916827bffffffffffffffffffffffffffffffffffffffffffffffffffffffff1916145b806103f557506103f482610a43565b5b9050919050565b60606000805461040b9061230c565b80601f01602080910402602001604051908101604052809291908181526020018280546104379061230c565b80156104845780601f1061045957610100808354040283529160200191610484565b820191906000526020600020905b81548152906001019060200180831161046757829003601f168201915b5050505050905090565b600061049982610aad565b6004600083815260200190815260200160002060009054906101000a900473ffffffffffffffffffffffffffffffffffffffff169050919050565b60006104df826106fe565b90508073ffffffffffffffffffffffffffffffffffffffff168373ffffffffffffffffffffffffffffffffffffffff161415610550576040517f08c379a000000000000000000000000000000000000000000000000000000000815260040161054790612162565b60405180910390fd5b8073ffffffffffffffffffffffffffffffffffffffff1661056f610af8565b73ffffffffffffffffffffffffffffffffffffffff16148061059e575061059d81610598610af8565b6109af565b5b6105dd576040517f08c379a00000000000000000000000000000000000000000000000000000000081526004016105d490612182565b60405180910390fd5b6105e78383610b00565b505050565b6105fd6105f7610af8565b82610bb9565b61063c576040517f08c379a000000000000000000000000000000000000000000000000000000000815260040161063390612042565b60405180910390fd5b610647838383610c4e565b505050565b610660679b7cbf0ba14e66f060c01b610f48565b6106746784e22ae67805292f60c01b610f48565b61068867efd9b33380a7fe5060c01b610f48565b6106928282610f4b565b5050565b6106b1838383604051806020016040528060008152506108e5565b505050565b6106ca67a2c88e77fa1d8ec360c01b610f48565b6106de6782ce2a6418e33b0260c01b610f48565b6106f267981d140b81e95d3960c01b610f48565b6106fb81611169565b50565b60008061070a836112b7565b9050600073ffffffffffffffffffffffffffffffffffffffff168173ffffffffffffffffffffffffffffffffffffffff16141561077c576040517f08c379a000000000000000000000000000000000000000000000000000000000815260040161077390612142565b60405180910390fd5b80915050919050565b60008073ffffffffffffffffffffffffffffffffffffffff168273ffffffffffffffffffffffffffffffffffffffff1614156107f6576040517f08c379a00000000000000000000000000000000000000000000000000000000081526004016107ed90612102565b60405180910390fd5b600360008373ffffffffffffffffffffffffffffffffffffffff1673ffffffffffffffffffffffffffffffffffffffff168152602001908152602001600020549050919050565b60606001805461084c9061230c565b80601f01602080910402602001604051908101604052809291908181526020018280546108789061230c565b80156108c55780601f1061089a576101008083540402835291602001916108c5565b820191906000526020600020905b8154815290600101906020018083116108a857829003601f168201915b5050505050905090565b6108e16108da610af8565b83836112f4565b5050565b6108f66108f0610af8565b83610bb9565b610935576040517f08c379a000000000000000000000000000000000000000000000000000000000815260040161092c90612042565b60405180910390fd5b61094184848484611461565b50505050565b606061095282610aad565b600061095c6114bd565b9050600081511161097c57604051806020016040528060008152506109a7565b80610986846114d4565b604051602001610997929190611f7a565b6040516020818303038152906040525b915050919050565b6000600560008473ffffffffffffffffffffffffffffffffffffffff1673ffffffffffffffffffffffffffffffffffffffff16815260200190815260200160002060008373ffffffffffffffffffffffffffffffffffffffff1673ffffffffffffffffffffffffffffffffffffffff16815260200190815260200160002060009054906101000a900460ff16905092915050565b60007f01ffc9a7000000000000000000000000000000000000000000000000000000007bffffffffffffffffffffffffffffffffffffffffffffffffffffffff1916827bffffffffffffffffffffffffffffffffffffffffffffffffffffffff1916149050919050565b610ab6816115f8565b610af5576040517f08c379a0000000000000000000000000000000000000000000000000000000008152600401610aec90612142565b60405180910390fd5b50565b600033905090565b816004600083815260200190815260200160002060006101000a81548173ffffffffffffffffffffffffffffffffffffffff021916908373ffffffffffffffffffffffffffffffffffffffff160217905550808273ffffffffffffffffffffffffffffffffffffffff16610b73836106fe565b73ffffffffffffffffffffffffffffffffffffffff167f8c5be1e5ebec7d5bd14f71427d1e84f3dd0314c0f7b2291e5b200ac8c7c3b92560405160405180910390a45050565b600080610bc5836106fe565b90508073ffffffffffffffffffffffffffffffffffffffff168473ffffffffffffffffffffffffffffffffffffffff161480610c075750610c0681856109af565b5b80610c4557508373ffffffffffffffffffffffffffffffffffffffff16610c2d8461048e565b73ffffffffffffffffffffffffffffffffffffffff16145b91505092915050565b8273ffffffffffffffffffffffffffffffffffffffff16610c6e826106fe565b73ffffffffffffffffffffffffffffffffffffffff1614610cc4576040517f08c379a0000000000000000000000000000000000000000000000000000000008152600401610cbb90612082565b60405180910390fd5b600073ffffffffffffffffffffffffffffffffffffffff168273ffffffffffffffffffffffffffffffffffffffff161415610d34576040517f08c379a0000000000000000000000000000000000000000000000000000000008152600401610d2b906120c2565b60405180910390fd5b610d418383836001611639565b8273ffffffffffffffffffffffffffffffffffffffff16610d61826106fe565b73ffffffffffffffffffffffffffffffffffffffff1614610db7576040517f08c379a0000000000000000000000000000000000000000000000000000000008152600401610dae90612082565b60405180910390fd5b6004600082815260200190815260200160002060006101000a81549073ffffffffffffffffffffffffffffffffffffffff02191690556001600360008573ffffffffffffffffffffffffffffffffffffffff1673ffffffffffffffffffffffffffffffffffffffff168152602001908152602001600020600082825403925050819055506001600360008473ffffffffffffffffffffffffffffffffffffffff1673ffffffffffffffffffffffffffffffffffffffff16815260200190815260200160002060008282540192505081905550816002600083815260200190815260200160002060006101000a81548173ffffffffffffffffffffffffffffffffffffffff021916908373ffffffffffffffffffffffffffffffffffffffff160217905550808273ffffffffffffffffffffffffffffffffffffffff168473ffffffffffffffffffffffffffffffffffffffff167fddf252ad1be2c89b69c2b068fc378daa952ba7f163c4a11628f55a4df523b3ef60405160405180910390a4610f43838383600161163f565b505050565b50565b600073ffffffffffffffffffffffffffffffffffffffff168273ffffffffffffffffffffffffffffffffffffffff161415610fbb576040517f08c379a0000000000000000000000000000000000000000000000000000000008152600401610fb290612122565b60405180910390fd5b610fc4816115f8565b15611004576040517f08c379a0000000000000000000000000000000000000000000000000000000008152600401610ffb906120a2565b60405180910390fd5b611012600083836001611639565b61101b816115f8565b1561105b576040517f08c379a0000000000000000000000000000000000000000000000000000000008152600401611052906120a2565b60405180910390fd5b6001600360008473ffffffffffffffffffffffffffffffffffffffff1673ffffffffffffffffffffffffffffffffffffffff16815260200190815260200160002060008282540192505081905550816002600083815260200190815260200160002060006101000a81548173ffffffffffffffffffffffffffffffffffffffff021916908373ffffffffffffffffffffffffffffffffffffffff160217905550808273ffffffffffffffffffffffffffffffffffffffff16600073ffffffffffffffffffffffffffffffffffffffff167fddf252ad1be2c89b69c2b068fc378daa952ba7f163c4a11628f55a4df523b3ef60405160405180910390a461116560008383600161163f565b5050565b6000611174826106fe565b9050611184816000846001611639565b61118d826106fe565b90506004600083815260200190815260200160002060006101000a81549073ffffffffffffffffffffffffffffffffffffffff02191690556001600360008373ffffffffffffffffffffffffffffffffffffffff1673ffffffffffffffffffffffffffffffffffffffff168152602001908152602001600020600082825403925050819055506002600083815260200190815260200160002060006101000a81549073ffffffffffffffffffffffffffffffffffffffff021916905581600073ffffffffffffffffffffffffffffffffffffffff168273ffffffffffffffffffffffffffffffffffffffff167fddf252ad1be2c89b69c2b068fc378daa952ba7f163c4a11628f55a4df523b3ef60405160405180910390a46112b381600084600161163f565b5050565b60006002600083815260200190815260200160002060009054906101000a900473ffffffffffffffffffffffffffffffffffffffff169050919050565b8173ffffffffffffffffffffffffffffffffffffffff168373ffffffffffffffffffffffffffffffffffffffff161415611363576040517f08c379a000000000000000000000000000000000000000000000000000000000815260040161135a906120e2565b60405180910390fd5b80600560008573ffffffffffffffffffffffffffffffffffffffff1673ffffffffffffffffffffffffffffffffffffffff16815260200190815260200160002060008473ffffffffffffffffffffffffffffffffffffffff1673ffffffffffffffffffffffffffffffffffffffff16815260200190815260200160002060006101000a81548160ff0219169083151502179055508173ffffffffffffffffffffffffffffffffffffffff168373ffffffffffffffffffffffffffffffffffffffff167f17307eab39ab6107e8899845ad3d59bd9653f200f220920489ca2b5937696c31836040516114549190612005565b60405180910390a3505050565b61146c848484610c4e565b61147884848484611645565b6114b7576040517f08c379a00000000000000000000000000000000000000000000000000000000081526004016114ae90612062565b60405180910390fd5b50505050565b606060405180602001604052806000815250905090565b6060600060016114e3846117dc565b01905060008167ffffffffffffffff811115611528577f4e487b7100000000000000000000000000000000000000000000000000000000600052604160045260246000fd5b6040519080825280601f01601f19166020018201604052801561155a5781602001600182028036833780820191505090505b509050600082602001820190505b6001156115ed578080600190039150507f3031323334353637383961626364656600000000000000000000000000000000600a86061a8153600a85816115d7577f4e487b7100000000000000000000000000000000000000000000000000000000600052601260045260246000fd5b04945060008514156115e8576115ed565b611568565b819350505050919050565b60008073ffffffffffffffffffffffffffffffffffffffff1661161a836112b7565b73ffffffffffffffffffffffffffffffffffffffff1614159050919050565b50505050565b50505050565b60006116668473ffffffffffffffffffffffffffffffffffffffff16611a13565b156117cf578373ffffffffffffffffffffffffffffffffffffffff1663150b7a0261168f610af8565b8786866040518563ffffffff1660e01b81526004016116b19493929190611fb9565b602060405180830381600087803b1580156116cb57600080fd5b505af19250505080156116fc57506040513d601f19601f820116820180604052508101906116f99190611cd7565b60015b61177f573d806000811461172c576040519150601f19603f3d011682016040523d82523d6000602084013e611731565b606091505b50600081511415611777576040517f08c379a000000000000000000000000000000000000000000000000000000000815260040161176e90612062565b60405180910390fd5b805181602001fd5b63150b7a0260e01b7bffffffffffffffffffffffffffffffffffffffffffffffffffffffff1916817bffffffffffffffffffffffffffffffffffffffffffffffffffffffff1916149150506117d4565b600190505b949350505050565b600080600090507a184f03e93ff9f4daa797ed6e38ed64bf6a1f0100000000000000008310611860577a184f03e93ff9f4daa797ed6e38ed64bf6a1f0100000000000000008381611856577f4e487b7100000000000000000000000000000000000000000000000000000000600052601260045260246000fd5b0492506040810190505b6d04ee2d6d415b85acef810000000083106118c3576d04ee2d6d415b85acef810000000083816118b9577f4e487b7100000000000000000000000000000000000000000000000000000000600052601260045260246000fd5b0492506020810190505b662386f26fc10000831061191857662386f26fc10000838161190e577f4e487b7100000000000000000000000000000000000000000000000000000000600052601260045260246000fd5b0492506010810190505b6305f5e1008310611967576305f5e100838161195d577f4e487b7100000000000000000000000000000000000000000000000000000000600052601260045260246000fd5b0492506008810190505b61271083106119b25761271083816119a8577f4e487b7100000000000000000000000000000000000000000000000000000000600052601260045260246000fd5b0492506004810190505b606483106119fb57606483816119f1577f4e487b7100000000000000000000000000000000000000000000000000000000600052601260045260246000fd5b0492506002810190505b600a8310611a0a576001810190505b80915050919050565b6000808273ffffffffffffffffffffffffffffffffffffffff163b119050919050565b6000611a49611a44846121e2565b6121bd565b905082815260208101848484011115611a6157600080fd5b611a6c8482856122ca565b509392505050565b600081359050611a83816126ab565b92915050565b600081359050611a98816126c2565b92915050565b600081359050611aad816126d9565b92915050565b600081519050611ac2816126d9565b92915050565b600082601f830112611ad957600080fd5b8135611ae9848260208601611a36565b91505092915050565b600081359050611b01816126f0565b92915050565b600060208284031215611b1957600080fd5b6000611b2784828501611a74565b91505092915050565b60008060408385031215611b4357600080fd5b6000611b5185828601611a74565b9250506020611b6285828601611a74565b9150509250929050565b600080600060608486031215611b8157600080fd5b6000611b8f86828701611a74565b9350506020611ba086828701611a74565b9250506040611bb186828701611af2565b9150509250925092565b60008060008060808587031215611bd157600080fd5b6000611bdf87828801611a74565b9450506020611bf087828801611a74565b9350506040611c0187828801611af2565b925050606085013567ffffffffffffffff811115611c1e57600080fd5b611c2a87828801611ac8565b91505092959194509250565b60008060408385031215611c4957600080fd5b6000611c5785828601611a74565b9250506020611c6885828601611a89565b9150509250929050565b60008060408385031215611c8557600080fd5b6000611c9385828601611a74565b9250506020611ca485828601611af2565b9150509250929050565b600060208284031215611cc057600080fd5b6000611cce84828501611a9e565b91505092915050565b600060208284031215611ce957600080fd5b6000611cf784828501611ab3565b91505092915050565b600060208284031215611d1257600080fd5b6000611d2084828501611af2565b91505092915050565b611d3281612256565b82525050565b611d4181612268565b82525050565b6000611d5282612213565b611d5c8185612229565b9350611d6c8185602086016122d9565b611d75816123cd565b840191505092915050565b6000611d8b8261221e565b611d95818561223a565b9350611da58185602086016122d9565b611dae816123cd565b840191505092915050565b6000611dc48261221e565b611dce818561224b565b9350611dde8185602086016122d9565b80840191505092915050565b6000611df7602d8361223a565b9150611e02826123de565b604082019050919050565b6000611e1a60328361223a565b9150611e258261242d565b604082019050919050565b6000611e3d60258361223a565b9150611e488261247c565b604082019050919050565b6000611e60601c8361223a565b9150611e6b826124cb565b602082019050919050565b6000611e8360248361223a565b9150611e8e826124f4565b604082019050919050565b6000611ea660198361223a565b9150611eb182612543565b602082019050919050565b6000611ec960298361223a565b9150611ed48261256c565b604082019050919050565b6000611eec60208361223a565b9150611ef7826125bb565b602082019050919050565b6000611f0f60188361223a565b9150611f1a826125e4565b602082019050919050565b6000611f3260218361223a565b9150611f3d8261260d565b604082019050919050565b6000611f55603d8361223a565b9150611f608261265c565b604082019050919050565b611f74816122c0565b82525050565b6000611f868285611db9565b9150611f928284611db9565b91508190509392505050565b6000602082019050611fb36000830184611d29565b92915050565b6000608082019050611fce6000830187611d29565b611fdb6020830186611d29565b611fe86040830185611f6b565b8181036060830152611ffa8184611d47565b905095945050505050565b600060208201905061201a6000830184611d38565b92915050565b6000602082019050818103600083015261203a8184611d80565b905092915050565b6000602082019050818103600083015261205b81611dea565b9050919050565b6000602082019050818103600083015261207b81611e0d565b9050919050565b6000602082019050818103600083015261209b81611e30565b9050919050565b600060208201905081810360008301526120bb81611e53565b9050919050565b600060208201905081810360008301526120db81611e76565b9050919050565b600060208201905081810360008301526120fb81611e99565b9050919050565b6000602082019050818103600083015261211b81611ebc565b9050919050565b6000602082019050818103600083015261213b81611edf565b9050919050565b6000602082019050818103600083015261215b81611f02565b9050919050565b6000602082019050818103600083015261217b81611f25565b9050919050565b6000602082019050818103600083015261219b81611f48565b9050919050565b60006020820190506121b76000830184611f6b565b92915050565b60006121c76121d8565b90506121d3828261233e565b919050565b6000604051905090565b600067ffffffffffffffff8211156121fd576121fc61239e565b5b612206826123cd565b9050602081019050919050565b600081519050919050565b600081519050919050565b600082825260208201905092915050565b600082825260208201905092915050565b600081905092915050565b6000612261826122a0565b9050919050565b60008115159050919050565b60007fffffffff0000000000000000000000000000000000000000000000000000000082169050919050565b600073ffffffffffffffffffffffffffffffffffffffff82169050919050565b6000819050919050565b82818337600083830152505050565b60005b838110156122f75780820151818401526020810190506122dc565b83811115612306576000848401525b50505050565b6000600282049050600182168061232457607f821691505b602082108114156123385761233761236f565b5b50919050565b612347826123cd565b810181811067ffffffffffffffff821117156123665761236561239e565b5b80604052505050565b7f4e487b7100000000000000000000000000000000000000000000000000000000600052602260045260246000fd5b7f4e487b7100000000000000000000000000000000000000000000000000000000600052604160045260246000fd5b6000601f19601f8301169050919050565b7f4552433732313a2063616c6c6572206973206e6f7420746f6b656e206f776e6560008201527f72206f7220617070726f76656400000000000000000000000000000000000000602082015250565b7f4552433732313a207472616e7366657220746f206e6f6e20455243373231526560008201527f63656976657220696d706c656d656e7465720000000000000000000000000000602082015250565b7f4552433732313a207472616e736665722066726f6d20696e636f72726563742060008201527f6f776e6572000000000000000000000000000000000000000000000000000000602082015250565b7f4552433732313a20746f6b656e20616c7265616479206d696e74656400000000600082015250565b7f4552433732313a207472616e7366657220746f20746865207a65726f2061646460008201527f7265737300000000000000000000000000000000000000000000000000000000602082015250565b7f4552433732313a20617070726f766520746f2063616c6c657200000000000000600082015250565b7f4552433732313a2061646472657373207a65726f206973206e6f74206120766160008201527f6c6964206f776e65720000000000000000000000000000000000000000000000602082015250565b7f4552433732313a206d696e7420746f20746865207a65726f2061646472657373600082015250565b7f4552433732313a20696e76616c696420746f6b656e2049440000000000000000600082015250565b7f4552433732313a20617070726f76616c20746f2063757272656e74206f776e6560008201527f7200000000000000000000000000000000000000000000000000000000000000602082015250565b7f4552433732313a20617070726f76652063616c6c6572206973206e6f7420746f60008201527f6b656e206f776e6572206f7220617070726f76656420666f7220616c6c000000602082015250565b6126b481612256565b81146126bf57600080fd5b50565b6126cb81612268565b81146126d657600080fd5b50565b6126e281612274565b81146126ed57600080fd5b50565b6126f9816122c0565b811461270457600080fd5b5056fea264697066735822122063541b0db70e8a957ac993f21f597c7825bf67f875b77d8f78bcb1a6e7eb64a764736f6c63430008040033",
  "linkReferences": {},
  "deployedLinkReferences": {}
}