{
  "_format": "hh-sol-artifact-1",
  "contractName": "NFTDutchAuction_ERC20Bids",
  "sourceName": "contracts/NFTDutchAuction_ERC20Bids.sol",
  "abi": [
    {
      "inputs": [
        {
          "internalType": "address",
          "name": "erc20TokenAddress",
          "type": "address"
        },
        {
          "internalType": "address",
          "name": "erc721TokenAddress",
          "type": "address"
        },
        {
          "internalType": "uint256",
          "name": "_nftTokenId",
          "type": "uint256"
        },
        {
          "internalType": "uint256",
          "name": "_reservePrice",
          "type": "uint256"
        },
        {
          "internalType": "uint256",
          "name": "_numBlocksAuctionOpen",
          "type": "uint256"
        },
        {
          "internalType": "uint256",
          "name": "_offerPriceDecrement",
          "type": "uint256"
        }
      ],
      "stateMutability": "nonpayable",
      "type": "constructor"
    },
    {
      "anonymous": false,
      "inputs": [
        {
          "indexed": true,
          "internalType": "address",
          "name": "winner",
          "type": "address"
        },
        {
          "indexed": false,
          "internalType": "uint256",
          "name": "winningBid",
          "type": "uint256"
        }
      ],
      "name": "AuctionEnded",
      "type": "event"
    },
    {
      "anonymous": false,
      "inputs": [
        {
          "indexed": false,
          "internalType": "uint256",
          "name": "startPrice",
          "type": "uint256"
        }
      ],
      "name": "AuctionStarted",
      "type": "event"
    },
    {
      "anonymous": false,
      "inputs": [
        {
          "indexed": true,
          "internalType": "address",
          "name": "refundedBidder",
          "type": "address"
        },
        {
          "indexed": false,
          "internalType": "uint256",
          "name": "amount",
          "type": "uint256"
        }
      ],
      "name": "BidRefunded",
      "type": "event"
    },
    {
      "anonymous": false,
      "inputs": [
        {
          "indexed": true,
          "internalType": "address",
          "name": "bidder",
          "type": "address"
        },
        {
          "indexed": false,
          "internalType": "uint256",
          "name": "amount",
          "type": "uint256"
        }
      ],
      "name": "NewBid",
      "type": "event"
    },
    {
      "anonymous": false,
      "inputs": [
        {
          "indexed": true,
          "internalType": "address",
          "name": "previousOwner",
          "type": "address"
        },
        {
          "indexed": true,
          "internalType": "address",
          "name": "newOwner",
          "type": "address"
        }
      ],
      "name": "OwnershipTransferred",
      "type": "event"
    },
    {
      "inputs": [],
      "name": "auctionDuration",
      "outputs": [
        {
          "internalType": "uint256",
          "name": "",
          "type": "uint256"
        }
      ],
      "stateMutability": "view",
      "type": "function"
    },
    {
      "inputs": [],
      "name": "auctionEnded",
      "outputs": [
        {
          "internalType": "bool",
          "name": "",
          "type": "bool"
        }
      ],
      "stateMutability": "view",
      "type": "function"
    },
    {
      "inputs": [
        {
          "internalType": "uint256",
          "name": "amount",
          "type": "uint256"
        }
      ],
      "name": "bid",
      "outputs": [],
      "stateMutability": "nonpayable",
      "type": "function"
    },
    {
      "inputs": [],
      "name": "bidToken",
      "outputs": [
        {
          "internalType": "contract IERC20",
          "name": "",
          "type": "address"
        }
      ],
      "stateMutability": "view",
      "type": "function"
    },
    {
      "inputs": [],
      "name": "bids",
      "outputs": [
        {
          "internalType": "address",
          "name": "",
          "type": "address"
        }
      ],
      "stateMutability": "view",
      "type": "function"
    },
    {
      "inputs": [],
      "name": "endAuction",
      "outputs": [],
      "stateMutability": "nonpayable",
      "type": "function"
    },
    {
      "inputs": [],
      "name": "getCurrentBlockNumber",
      "outputs": [
        {
          "internalType": "uint256",
          "name": "",
          "type": "uint256"
        }
      ],
      "stateMutability": "view",
      "type": "function"
    },
    {
      "inputs": [],
      "name": "getCurrentPrice",
      "outputs": [
        {
          "internalType": "uint256",
          "name": "",
          "type": "uint256"
        }
      ],
      "stateMutability": "view",
      "type": "function"
    },
    {
      "inputs": [],
      "name": "highestBid",
      "outputs": [
        {
          "internalType": "uint256",
          "name": "",
          "type": "uint256"
        }
      ],
      "stateMutability": "view",
      "type": "function"
    },
    {
      "inputs": [],
      "name": "highestBidder",
      "outputs": [
        {
          "internalType": "address",
          "name": "",
          "type": "address"
        }
      ],
      "stateMutability": "view",
      "type": "function"
    },
    {
      "inputs": [],
      "name": "nftToken",
      "outputs": [
        {
          "internalType": "contract IERC721",
          "name": "",
          "type": "address"
        }
      ],
      "stateMutability": "view",
      "type": "function"
    },
    {
      "inputs": [],
      "name": "nftTokenId",
      "outputs": [
        {
          "internalType": "uint256",
          "name": "",
          "type": "uint256"
        }
      ],
      "stateMutability": "view",
      "type": "function"
    },
    {
      "inputs": [],
      "name": "numBlocksAuctionOpen",
      "outputs": [
        {
          "internalType": "uint256",
          "name": "",
          "type": "uint256"
        }
      ],
      "stateMutability": "view",
      "type": "function"
    },
    {
      "inputs": [],
      "name": "offerPriceDecrement",
      "outputs": [
        {
          "internalType": "uint256",
          "name": "",
          "type": "uint256"
        }
      ],
      "stateMutability": "view",
      "type": "function"
    },
    {
      "inputs": [],
      "name": "owner",
      "outputs": [
        {
          "internalType": "address",
          "name": "",
          "type": "address"
        }
      ],
      "stateMutability": "view",
      "type": "function"
    },
    {
      "inputs": [],
      "name": "renounceOwnership",
      "outputs": [],
      "stateMutability": "nonpayable",
      "type": "function"
    },
    {
      "inputs": [],
      "name": "reservePrice",
      "outputs": [
        {
          "internalType": "uint256",
          "name": "",
          "type": "uint256"
        }
      ],
      "stateMutability": "view",
      "type": "function"
    },
    {
      "inputs": [],
      "name": "startBlock",
      "outputs": [
        {
          "internalType": "uint256",
          "name": "",
          "type": "uint256"
        }
      ],
      "stateMutability": "view",
      "type": "function"
    },
    {
      "inputs": [],
      "name": "startPrice",
      "outputs": [
        {
          "internalType": "uint256",
          "name": "",
          "type": "uint256"
        }
      ],
      "stateMutability": "view",
      "type": "function"
    },
    {
      "inputs": [
        {
          "internalType": "address",
          "name": "newOwner",
          "type": "address"
        }
      ],
      "name": "transferOwnership",
      "outputs": [],
      "stateMutability": "nonpayable",
      "type": "function"
    }
  ],
  "bytecode": "0x60806040523480156200001157600080fd5b5060405162002723380380620027238339818101604052810190620000379190620005f4565b620000576200004b620004f760201b60201c565b620004ff60201b60201c565b620000736785a336c5f98fe62f60c01b620005c360201b60201c565b6200008f6743ae8d156ac7a7a660c01b620005c360201b60201c565b620000ab6767a7bb31d5a4af8f60c01b620005c360201b60201c565b620000c7675af36aef3f68943260c01b620005c360201b60201c565b600083116200010d576040517f08c379a0000000000000000000000000000000000000000000000000000000008152600401620001049062000710565b60405180910390fd5b6200012967e7b4e4a91fc1db7c60c01b620005c360201b60201c565b62000145674c2c013797bbcbe660c01b620005c360201b60201c565b620001616733d4093ead0f711c60c01b620005c360201b60201c565b6200017d6745486be4595b9c2e60c01b620005c360201b60201c565b60008111620001c3576040517f08c379a0000000000000000000000000000000000000000000000000000000008152600401620001ba9062000732565b60405180910390fd5b620001df67622a24a6a53d031860c01b620005c360201b60201c565b620001fb67a568bdd0fc3d349d60c01b620005c360201b60201c565b6200021767d5df146265b2dd1d60c01b620005c360201b60201c565b62000233676c2c04df6993e72b60c01b620005c360201b60201c565b6000821162000279576040517f08c379a0000000000000000000000000000000000000000000000000000000008152600401620002709062000754565b60405180910390fd5b6200029567ddc2fbb8e990a24360c01b620005c360201b60201c565b620002b1670f6d2cba10a18c2460c01b620005c360201b60201c565b84600160006101000a81548173ffffffffffffffffffffffffffffffffffffffff021916908373ffffffffffffffffffffffffffffffffffffffff1602179055506200030e67e4539cdad9784af160c01b620005c360201b60201c565b85600260006101000a81548173ffffffffffffffffffffffffffffffffffffffff021916908373ffffffffffffffffffffffffffffffffffffffff1602179055506200036b67d88cf4c7f0c6bf6c60c01b620005c360201b60201c565b836003819055506200038e6774c9719099e8906e60c01b620005c360201b60201c565b82600481905550620003b16739cd8f8ea954d58660c01b620005c360201b60201c565b81600581905550620003d467e826ebcd9967764260c01b620005c360201b60201c565b80600781905550620003f767dfd1125ac64ce77960c01b620005c360201b60201c565b60075460055462000409919062000801565b600454620004189190620007a4565b6009819055506200043a670f91bc79fc549acb60c01b620005c360201b60201c565b43600a819055506200045d67467568a5d10f0a4b60c01b620005c360201b60201c565b6000600c60146101000a81548160ff02191690831515021790555062000494670723c8c9c9de6ad960c01b620005c360201b60201c565b620004b0678b4dffb3cbb3661f60c01b620005c360201b60201c565b7f1bb96dff6ab5005aff98cdc0cf176bb7d8e0423cb48e02217d35b042cec81e9f600954604051620004e3919062000776565b60405180910390a1505050505050620009f0565b600033905090565b60008060009054906101000a900473ffffffffffffffffffffffffffffffffffffffff169050816000806101000a81548173ffffffffffffffffffffffffffffffffffffffff021916908373ffffffffffffffffffffffffffffffffffffffff1602179055508173ffffffffffffffffffffffffffffffffffffffff168173ffffffffffffffffffffffffffffffffffffffff167f8be0079c531659141344cd1fd0a4f28419497f9722a3daafe3b4186f6b6457e060405160405180910390a35050565b50565b600081519050620005d781620009bc565b92915050565b600081519050620005ee81620009d6565b92915050565b60008060008060008060c087890312156200060e57600080fd5b60006200061e89828a01620005c6565b96505060206200063189828a01620005c6565b95505060406200064489828a01620005dd565b94505060606200065789828a01620005dd565b93505060806200066a89828a01620005dd565b92505060a06200067d89828a01620005dd565b9150509295509295509295565b60006200069960268362000793565b9150620006a682620008cf565b604082019050919050565b6000620006c0602e8362000793565b9150620006cd826200091e565b604082019050919050565b6000620006e7602b8362000793565b9150620006f4826200096d565b604082019050919050565b6200070a8162000896565b82525050565b600060208201905081810360008301526200072b816200068a565b9050919050565b600060208201905081810360008301526200074d81620006b1565b9050919050565b600060208201905081810360008301526200076f81620006d8565b9050919050565b60006020820190506200078d6000830184620006ff565b92915050565b600082825260208201905092915050565b6000620007b18262000896565b9150620007be8362000896565b9250827fffffffffffffffffffffffffffffffffffffffffffffffffffffffffffffffff03821115620007f657620007f5620008a0565b5b828201905092915050565b60006200080e8262000896565b91506200081b8362000896565b9250817fffffffffffffffffffffffffffffffffffffffffffffffffffffffffffffffff0483118215151615620008575762000856620008a0565b5b828202905092915050565b60006200086f8262000876565b9050919050565b600073ffffffffffffffffffffffffffffffffffffffff82169050919050565b6000819050919050565b7f4e487b7100000000000000000000000000000000000000000000000000000000600052601160045260246000fd5b7f526573657276652070726963652073686f756c6420626520677265617465722060008201527f7468616e20300000000000000000000000000000000000000000000000000000602082015250565b7f4f666665722070726963652064656372656d656e742073686f756c642062652060008201527f67726561746572207468616e2030000000000000000000000000000000000000602082015250565b7f41756374696f6e206d757374206265206f70656e20666f72206174206c65617360008201527f74206f6e6520626c6f636b000000000000000000000000000000000000000000602082015250565b620009c78162000862565b8114620009d357600080fd5b50565b620009e18162000896565b8114620009ed57600080fd5b50565b611d238062000a006000396000f3fe608060405234801561001057600080fd5b506004361061012c5760003560e01c8063cc996d1b116100ad578063dfafd4fd11610071578063dfafd4fd146102dd578063eb91d37e146102fb578063f1a9af8914610319578063f2fde38b14610337578063fe67a54b146103535761012c565b8063cc996d1b14610247578063d06fcba814610265578063d3642a8814610283578063d57bde79146102a1578063db2e1eed146102bf5761012c565b8063715018a6116100f4578063715018a6146101c55780637e830574146101cf57806386433374146101ed5780638da5cb5b1461020b57806391f90157146102295761012c565b80630cbf54c8146101315780633103ea621461014f578063454a2ab31461016d57806348cd4cb1146101895780636fd902e1146101a7575b600080fd5b61013961035d565b604051610146919061191c565b60405180910390f35b610157610363565b604051610164919061191c565b60405180910390f35b6101876004803603810190610182919061152f565b610369565b005b610191610b91565b60405161019e919061191c565b60405180910390f35b6101af610b97565b6040516101bc919061191c565b60405180910390f35b6101cd610bdb565b005b6101d7610bef565b6040516101e4919061191c565b60405180910390f35b6101f5610bf5565b60405161020291906117ab565b60405180910390f35b610213610c08565b6040516102209190611707565b60405180910390f35b610231610c31565b60405161023e9190611707565b60405180910390f35b61024f610c57565b60405161025c9190611707565b60405180910390f35b61026d610c7d565b60405161027a91906117e1565b60405180910390f35b61028b610ca3565b604051610298919061191c565b60405180910390f35b6102a9610ca9565b6040516102b6919061191c565b60405180910390f35b6102c7610caf565b6040516102d4919061191c565b60405180910390f35b6102e5610cb5565b6040516102f291906117c6565b60405180910390f35b610303610cdb565b604051610310919061191c565b60405180910390f35b610321610e4a565b60405161032e919061191c565b60405180910390f35b610351600480360381019061034c91906114dd565b610e50565b005b61035b610ed4565b005b60065481565b60055481565b61037d67a315e9e63ffe969f60c01b61132a565b610391674563f59892ad6b5f60c01b61132a565b6103a5671e4052a5d2199aa860c01b61132a565b6103b967dd1612fd6debf16f60c01b61132a565b600c60149054906101000a900460ff1615610409576040517f08c379a00000000000000000000000000000000000000000000000000000000081526004016104009061185c565b60405180910390fd5b61041d67858572bb7c37a1f960c01b61132a565b6104316786058640ae515e4c60c01b61132a565b610445673ca5a773963c037a60c01b61132a565b610459678987c89353a14bf060c01b61132a565b600554600a546104699190611948565b4311156104ab576040517f08c379a00000000000000000000000000000000000000000000000000000000081526004016104a2906118dc565b60405180910390fd5b6104bf670966248a065e3cef60c01b61132a565b6104d367bbcffbb45c8400f460c01b61132a565b6104e76719b0206fe4ede28360c01b61132a565b6104fb672ca04cfa61698ea860c01b61132a565b610503610cdb565b811015610545576040517f08c379a000000000000000000000000000000000000000000000000000000000815260040161053c906118fc565b60405180910390fd5b61055967158102165dae4dfc60c01b61132a565b61056d67b2925ce5a3ba532960c01b61132a565b61058167cefed260c8df12a160c01b61132a565b6105956775ea169c4edb784f60c01b61132a565b61059d610c08565b73ffffffffffffffffffffffffffffffffffffffff163373ffffffffffffffffffffffffffffffffffffffff16141561060b576040517f08c379a0000000000000000000000000000000000000000000000000000000008152600401610602906117fc565b60405180910390fd5b61061f673f3fceeba468191360c01b61132a565b610633670650658d5cd8465660c01b61132a565b61064767eac10fcf13c7eba360c01b61132a565b6000600260009054906101000a900473ffffffffffffffffffffffffffffffffffffffff1673ffffffffffffffffffffffffffffffffffffffff1663dd62ed3e33306040518363ffffffff1660e01b81526004016106a6929190611722565b60206040518083038186803b1580156106be57600080fd5b505afa1580156106d2573d6000803e3d6000fd5b505050506040513d601f19601f820116820180604052508101906106f69190611558565b905061070c6732c2c8142c3ecb5160c01b61132a565b610720679f3aaa4baad7777c60c01b61132a565b6107346739d01315b42447c560c01b61132a565b81811015610777576040517f08c379a000000000000000000000000000000000000000000000000000000000815260040161076e9061187c565b60405180910390fd5b61078b67f8cd127cd453c52c60c01b61132a565b61079f67520fa0ce1927e85060c01b61132a565b6107b36789c6502e74bafc8060c01b61132a565b600073ffffffffffffffffffffffffffffffffffffffff16600c60009054906101000a900473ffffffffffffffffffffffffffffffffffffffff1673ffffffffffffffffffffffffffffffffffffffff16146109b85761081d6756d3572f0fc8768760c01b61132a565b6108316702285fa93d37a55560c01b61132a565b61084567903772ee24f92a1960c01b61132a565b600260009054906101000a900473ffffffffffffffffffffffffffffffffffffffff1673ffffffffffffffffffffffffffffffffffffffff1663a9059cbb600c60009054906101000a900473ffffffffffffffffffffffffffffffffffffffff166008546040518363ffffffff1660e01b81526004016108c6929190611782565b602060405180830381600087803b1580156108e057600080fd5b505af11580156108f4573d6000803e3d6000fd5b505050506040513d601f19601f820116820180604052508101906109189190611506565b5061092d67225a409c3e2c551b60c01b61132a565b610941678b84cb28b3bea96c60c01b61132a565b600c60009054906101000a900473ffffffffffffffffffffffffffffffffffffffff1673ffffffffffffffffffffffffffffffffffffffff167f8377883650d2137d6e6d67bcf2dbb9b1dab287d68240a17ff910b9fb7a0ad5ff6008546040516109ab919061191c565b60405180910390a26109cd565b6109cc673bdd45a88dd9dfa660c01b61132a565b5b6109e167346f514ba5c9719260c01b61132a565b6109f567e5b02f628d4a3ae960c01b61132a565b600260009054906101000a900473ffffffffffffffffffffffffffffffffffffffff1673ffffffffffffffffffffffffffffffffffffffff166323b872dd3330856040518463ffffffff1660e01b8152600401610a549392919061174b565b602060405180830381600087803b158015610a6e57600080fd5b505af1158015610a82573d6000803e3d6000fd5b505050506040513d601f19601f82011682018060405250810190610aa69190611506565b50610abb67f5d5923be2bbe14860c01b61132a565b81600881905550610ad6673599a4576a26d1f960c01b61132a565b33600c60006101000a81548173ffffffffffffffffffffffffffffffffffffffff021916908373ffffffffffffffffffffffffffffffffffffffff160217905550610b2b671e89722216c0f52260c01b61132a565b610b3f675efe6924cc617e2f60c01b61132a565b3373ffffffffffffffffffffffffffffffffffffffff167fdd0b6c6a77960e2066c96171b4d7ac9e8b4c184011f38544afa36a5bb63ec59f83604051610b85919061191c565b60405180910390a25050565b600a5481565b6000610bad6797b13db07b358ea460c01b61132a565b610bc167471b7e461adb4bcc60c01b61132a565b610bd567f0f33a09c20c9cc160c01b61132a565b43905090565b610be361132d565b610bed60006113ab565b565b60035481565b600c60149054906101000a900460ff1681565b60008060009054906101000a900473ffffffffffffffffffffffffffffffffffffffff16905090565b600c60009054906101000a900473ffffffffffffffffffffffffffffffffffffffff1681565b600b60009054906101000a900473ffffffffffffffffffffffffffffffffffffffff1681565b600160009054906101000a900473ffffffffffffffffffffffffffffffffffffffff1681565b60075481565b60085481565b60045481565b600260009054906101000a900473ffffffffffffffffffffffffffffffffffffffff1681565b6000610cf16762a358f3226a737d60c01b61132a565b610d0567f5e06f3ba07a2bf760c01b61132a565b610d1967169d3abb076d11e460c01b61132a565b600a54431115610e0557610d37675403d111e722321360c01b61132a565b610d4b6716bf11a214c7b2dc60c01b61132a565b610d5f6773bd3dcd03041d4c60c01b61132a565b6000600a5443610d6f91906119f8565b600754610d7c919061199e565b9050610d9267746284807fd293a760c01b61132a565b610da667fc51443447e1e04060c01b61132a565b80600954118015610dc75750610dc6673906215b6193d73b60c01b61146f565b5b80610de25750610de167342505e8e42fc8ce60c01b61147a565b5b610dee57600454610dfd565b80600954610dfc91906119f8565b5b915050610e47565b610e19670ba70f40d4b842e060c01b61132a565b610e2d6768f24659b045b95660c01b61132a565b610e4167697f2e7cf6d8eb0a60c01b61132a565b60095490505b90565b60095481565b610e5861132d565b600073ffffffffffffffffffffffffffffffffffffffff168173ffffffffffffffffffffffffffffffffffffffff161415610ec8576040517f08c379a0000000000000000000000000000000000000000000000000000000008152600401610ebf9061181c565b60405180910390fd5b610ed1816113ab565b50565b610ee8679969e8bc74397ded60c01b61132a565b610ef061132d565b610f0467e9d39562edd7614460c01b61132a565b610f1867f34fe1ec807861e760c01b61132a565b610f2c671756ab3e8ff0ba4060c01b61132a565b610f4067528a0ef4a5afac3160c01b61132a565b610f5467da2f38867843e67c60c01b61132a565b600c60149054906101000a900460ff1615610fa4576040517f08c379a0000000000000000000000000000000000000000000000000000000008152600401610f9b9061183c565b60405180910390fd5b610fb867f3383d75c2f9082660c01b61132a565b610fcc67b8845e6f2135dbac60c01b61132a565b610fe067ce3438b41861e20e60c01b61132a565b610ff467e1f5757095b7861a60c01b61132a565b600073ffffffffffffffffffffffffffffffffffffffff16600c60009054906101000a900473ffffffffffffffffffffffffffffffffffffffff1673ffffffffffffffffffffffffffffffffffffffff161415611086576040517f08c379a000000000000000000000000000000000000000000000000000000000815260040161107d9061189c565b60405180910390fd5b61109a673aa486797ceaaacc60c01b61132a565b6110ae67b68cb3e64db7e6c460c01b61132a565b6110c267f31b5c48fd4f8aca60c01b61132a565b600260009054906101000a900473ffffffffffffffffffffffffffffffffffffffff1673ffffffffffffffffffffffffffffffffffffffff1663a9059cbb611108610c08565b6008546040518363ffffffff1660e01b8152600401611128929190611782565b602060405180830381600087803b15801561114257600080fd5b505af1158015611156573d6000803e3d6000fd5b505050506040513d601f19601f8201168201806040525081019061117a9190611506565b5061118f67d028b525d3dd286860c01b61132a565b6111a36795d04854994ecfb760c01b61132a565b600160009054906101000a900473ffffffffffffffffffffffffffffffffffffffff1673ffffffffffffffffffffffffffffffffffffffff166323b872dd6111e9610c08565b600c60009054906101000a900473ffffffffffffffffffffffffffffffffffffffff166003546040518463ffffffff1660e01b815260040161122d9392919061174b565b600060405180830381600087803b15801561124757600080fd5b505af115801561125b573d6000803e3d6000fd5b5050505061127367ddc9e66783559f6c60c01b61132a565b6001600c60146101000a81548160ff0219169083151502179055506112a267c8d7db24861c829160c01b61132a565b6112b667e5100e172ddf1e9460c01b61132a565b600c60009054906101000a900473ffffffffffffffffffffffffffffffffffffffff1673ffffffffffffffffffffffffffffffffffffffff167fdaec4582d5d9595688c8c98545fdd1c696d41c6aeaeb636737e84ed2f5c00eda600854604051611320919061191c565b60405180910390a2565b50565b611335611481565b73ffffffffffffffffffffffffffffffffffffffff16611353610c08565b73ffffffffffffffffffffffffffffffffffffffff16146113a9576040517f08c379a00000000000000000000000000000000000000000000000000000000081526004016113a0906118bc565b60405180910390fd5b565b60008060009054906101000a900473ffffffffffffffffffffffffffffffffffffffff169050816000806101000a81548173ffffffffffffffffffffffffffffffffffffffff021916908373ffffffffffffffffffffffffffffffffffffffff1602179055508173ffffffffffffffffffffffffffffffffffffffff168173ffffffffffffffffffffffffffffffffffffffff167f8be0079c531659141344cd1fd0a4f28419497f9722a3daafe3b4186f6b6457e060405160405180910390a35050565b600060019050919050565b6000919050565b600033905090565b60008135905061149881611ca8565b92915050565b6000815190506114ad81611cbf565b92915050565b6000813590506114c281611cd6565b92915050565b6000815190506114d781611cd6565b92915050565b6000602082840312156114ef57600080fd5b60006114fd84828501611489565b91505092915050565b60006020828403121561151857600080fd5b60006115268482850161149e565b91505092915050565b60006020828403121561154157600080fd5b600061154f848285016114b3565b91505092915050565b60006020828403121561156a57600080fd5b6000611578848285016114c8565b91505092915050565b61158a81611a2c565b82525050565b61159981611a3e565b82525050565b6115a881611a74565b82525050565b6115b781611a98565b82525050565b60006115ca601883611937565b91506115d582611aeb565b602082019050919050565b60006115ed602683611937565b91506115f882611b14565b604082019050919050565b6000611610601983611937565b915061161b82611b63565b602082019050919050565b6000611633601183611937565b915061163e82611b8c565b602082019050919050565b6000611656601983611937565b915061166182611bb5565b602082019050919050565b6000611679601083611937565b915061168482611bde565b602082019050919050565b600061169c602083611937565b91506116a782611c07565b602082019050919050565b60006116bf601183611937565b91506116ca82611c30565b602082019050919050565b60006116e2602383611937565b91506116ed82611c59565b604082019050919050565b61170181611a6a565b82525050565b600060208201905061171c6000830184611581565b92915050565b60006040820190506117376000830185611581565b6117446020830184611581565b9392505050565b60006060820190506117606000830186611581565b61176d6020830185611581565b61177a60408301846116f8565b949350505050565b60006040820190506117976000830185611581565b6117a460208301846116f8565b9392505050565b60006020820190506117c06000830184611590565b92915050565b60006020820190506117db600083018461159f565b92915050565b60006020820190506117f660008301846115ae565b92915050565b60006020820190508181036000830152611815816115bd565b9050919050565b60006020820190508181036000830152611835816115e0565b9050919050565b6000602082019050818103600083015261185581611603565b9050919050565b6000602082019050818103600083015261187581611626565b9050919050565b6000602082019050818103600083015261189581611649565b9050919050565b600060208201905081810360008301526118b58161166c565b9050919050565b600060208201905081810360008301526118d58161168f565b9050919050565b600060208201905081810360008301526118f5816116b2565b9050919050565b60006020820190508181036000830152611915816116d5565b9050919050565b600060208201905061193160008301846116f8565b92915050565b600082825260208201905092915050565b600061195382611a6a565b915061195e83611a6a565b9250827fffffffffffffffffffffffffffffffffffffffffffffffffffffffffffffffff0382111561199357611992611abc565b5b828201905092915050565b60006119a982611a6a565b91506119b483611a6a565b9250817fffffffffffffffffffffffffffffffffffffffffffffffffffffffffffffffff04831182151516156119ed576119ec611abc565b5b828202905092915050565b6000611a0382611a6a565b9150611a0e83611a6a565b925082821015611a2157611a20611abc565b5b828203905092915050565b6000611a3782611a4a565b9050919050565b60008115159050919050565b600073ffffffffffffffffffffffffffffffffffffffff82169050919050565b6000819050919050565b6000611a7f82611a86565b9050919050565b6000611a9182611a4a565b9050919050565b6000611aa382611aaa565b9050919050565b6000611ab582611a4a565b9050919050565b7f4e487b7100000000000000000000000000000000000000000000000000000000600052601160045260246000fd5b7f4f776e65722063616e6e6f7420706c6163652061206269640000000000000000600082015250565b7f4f776e61626c653a206e6577206f776e657220697320746865207a65726f206160008201527f6464726573730000000000000000000000000000000000000000000000000000602082015250565b7f41756374696f6e2068617320616c726561647920656e64656400000000000000600082015250565b7f41756374696f6e2068617320656e646564000000000000000000000000000000600082015250565b7f436865636b2074686520746f6b656e20616c6c6f77616e636500000000000000600082015250565b7f4e6f206269647320726563656976656400000000000000000000000000000000600082015250565b7f4f776e61626c653a2063616c6c6572206973206e6f7420746865206f776e6572600082015250565b7f41756374696f6e20697320636c6f736564000000000000000000000000000000600082015250565b7f426964206973206c6f776572207468616e20746865207265736572766520707260008201527f6963650000000000000000000000000000000000000000000000000000000000602082015250565b611cb181611a2c565b8114611cbc57600080fd5b50565b611cc881611a3e565b8114611cd357600080fd5b50565b611cdf81611a6a565b8114611cea57600080fd5b5056fea2646970667358221220259f091e1c1b23ae2de6a54e2fd2bd8e6d48f113453b522b7713fb57af6df44264736f6c63430008040033",
  "linkReferences": {},
  "deployedLinkReferences": {}
}