{"contracts/NFTDutchAuction_ERC20Bids.sol":{"NFTDutchAuction_ERC20Bids":{"abi":[{"inputs":[{"internalType":"address","name":"erc20TokenAddress","type":"address"},{"internalType":"address","name":"erc721TokenAddress","type":"address"},{"internalType":"uint256","name":"_nftTokenId","type":"uint256"},{"internalType":"uint256","name":"_reservePrice","type":"uint256"},{"internalType":"uint256","name":"_numBlocksAuctionOpen","type":"uint256"},{"internalType":"uint256","name":"_offerPriceDecrement","type":"uint256"}],"stateMutability":"nonpayable","type":"constructor"},{"anonymous":false,"inputs":[{"indexed":true,"internalType":"address","name":"winner","type":"address"},{"indexed":false,"internalType":"uint256","name":"winningBid","type":"uint256"}],"name":"AuctionEnded","type":"event"},{"anonymous":false,"inputs":[{"indexed":false,"internalType":"uint256","name":"startPrice","type":"uint256"}],"name":"AuctionStarted","type":"event"},{"anonymous":false,"inputs":[{"indexed":true,"internalType":"address","name":"refundedBidder","type":"address"},{"indexed":false,"internalType":"uint256","name":"amount","type":"uint256"}],"name":"BidRefunded","type":"event"},{"anonymous":false,"inputs":[{"indexed":true,"internalType":"address","name":"bidder","type":"address"},{"indexed":false,"internalType":"uint256","name":"amount","type":"uint256"}],"name":"NewBid","type":"event"},{"anonymous":false,"inputs":[{"indexed":true,"internalType":"address","name":"previousOwner","type":"address"},{"indexed":true,"internalType":"address","name":"newOwner","type":"address"}],"name":"OwnershipTransferred","type":"event"},{"inputs":[],"name":"auctionDuration","outputs":[{"internalType":"uint256","name":"","type":"uint256"}],"stateMutability":"view","type":"function"},{"inputs":[],"name":"auctionEnded","outputs":[{"internalType":"bool","name":"","type":"bool"}],"stateMutability":"view","type":"function"},{"inputs":[{"internalType":"uint256","name":"amount","type":"uint256"}],"name":"bid","outputs":[],"stateMutability":"nonpayable","type":"function"},{"inputs":[],"name":"bidToken","outputs":[{"internalType":"contract IERC20","name":"","type":"address"}],"stateMutability":"view","type":"function"},{"inputs":[],"name":"bids","outputs":[{"internalType":"address","name":"","type":"address"}],"stateMutability":"view","type":"function"},{"inputs":[],"name":"endAuction","outputs":[],"stateMutability":"nonpayable","type":"function"},{"inputs":[],"name":"getCurrentBlockNumber","outputs":[{"internalType":"uint256","name":"","type":"uint256"}],"stateMutability":"view","type":"function"},{"inputs":[],"name":"getCurrentPrice","outputs":[{"internalType":"uint256","name":"","type":"uint256"}],"stateMutability":"view","type":"function"},{"inputs":[],"name":"highestBid","outputs":[{"internalType":"uint256","name":"","type":"uint256"}],"stateMutability":"view","type":"function"},{"inputs":[],"name":"highestBidder","outputs":[{"internalType":"address","name":"","type":"address"}],"stateMutability":"view","type":"function"},{"inputs":[],"name":"nftToken","outputs":[{"internalType":"contract IERC721","name":"","type":"address"}],"stateMutability":"view","type":"function"},{"inputs":[],"name":"nftTokenId","outputs":[{"internalType":"uint256","name":"","type":"uint256"}],"stateMutability":"view","type":"function"},{"inputs":[],"name":"numBlocksAuctionOpen","outputs":[{"internalType":"uint256","name":"","type":"uint256"}],"stateMutability":"view","type":"function"},{"inputs":[],"name":"offerPriceDecrement","outputs":[{"internalType":"uint256","name":"","type":"uint256"}],"stateMutability":"view","type":"function"},{"inputs":[],"name":"owner","outputs":[{"internalType":"address","name":"","type":"address"}],"stateMutability":"view","type":"function"},{"inputs":[],"name":"renounceOwnership","outputs":[],"stateMutability":"nonpayable","type":"function"},{"inputs":[],"name":"reservePrice","outputs":[{"internalType":"uint256","name":"","type":"uint256"}],"stateMutability":"view","type":"function"},{"inputs":[],"name":"startBlock","outputs":[{"internalType":"uint256","name":"","type":"uint256"}],"stateMutability":"view","type":"function"},{"inputs":[],"name":"startPrice","outputs":[{"internalType":"uint256","name":"","type":"uint256"}],"stateMutability":"view","type":"function"},{"inputs":[{"internalType":"address","name":"newOwner","type":"address"}],"name":"transferOwnership","outputs":[],"stateMutability":"nonpayable","type":"function"}],"evm":{"bytecode":{"linkReferences":{},"object":"60806040523480156200001157600080fd5b5060405162002723380380620027238339818101604052810190620000379190620005f4565b620000576200004b620004f760201b60201c565b620004ff60201b60201c565b620000736785a336c5f98fe62f60c01b620005c360201b60201c565b6200008f6743ae8d156ac7a7a660c01b620005c360201b60201c565b620000ab6767a7bb31d5a4af8f60c01b620005c360201b60201c565b620000c7675af36aef3f68943260c01b620005c360201b60201c565b600083116200010d576040517f08c379a0000000000000000000000000000000000000000000000000000000008152600401620001049062000710565b60405180910390fd5b6200012967e7b4e4a91fc1db7c60c01b620005c360201b60201c565b62000145674c2c013797bbcbe660c01b620005c360201b60201c565b620001616733d4093ead0f711c60c01b620005c360201b60201c565b6200017d6745486be4595b9c2e60c01b620005c360201b60201c565b60008111620001c3576040517f08c379a0000000000000000000000000000000000000000000000000000000008152600401620001ba9062000732565b60405180910390fd5b620001df67622a24a6a53d031860c01b620005c360201b60201c565b620001fb67a568bdd0fc3d349d60c01b620005c360201b60201c565b6200021767d5df146265b2dd1d60c01b620005c360201b60201c565b62000233676c2c04df6993e72b60c01b620005c360201b60201c565b6000821162000279576040517f08c379a0000000000000000000000000000000000000000000000000000000008152600401620002709062000754565b60405180910390fd5b6200029567ddc2fbb8e990a24360c01b620005c360201b60201c565b620002b1670f6d2cba10a18c2460c01b620005c360201b60201c565b84600160006101000a81548173ffffffffffffffffffffffffffffffffffffffff021916908373ffffffffffffffffffffffffffffffffffffffff1602179055506200030e67e4539cdad9784af160c01b620005c360201b60201c565b85600260006101000a81548173ffffffffffffffffffffffffffffffffffffffff021916908373ffffffffffffffffffffffffffffffffffffffff1602179055506200036b67d88cf4c7f0c6bf6c60c01b620005c360201b60201c565b836003819055506200038e6774c9719099e8906e60c01b620005c360201b60201c565b82600481905550620003b16739cd8f8ea954d58660c01b620005c360201b60201c565b81600581905550620003d467e826ebcd9967764260c01b620005c360201b60201c565b80600781905550620003f767dfd1125ac64ce77960c01b620005c360201b60201c565b60075460055462000409919062000801565b600454620004189190620007a4565b6009819055506200043a670f91bc79fc549acb60c01b620005c360201b60201c565b43600a819055506200045d67467568a5d10f0a4b60c01b620005c360201b60201c565b6000600c60146101000a81548160ff02191690831515021790555062000494670723c8c9c9de6ad960c01b620005c360201b60201c565b620004b0678b4dffb3cbb3661f60c01b620005c360201b60201c565b7f1bb96dff6ab5005aff98cdc0cf176bb7d8e0423cb48e02217d35b042cec81e9f600954604051620004e3919062000776565b60405180910390a1505050505050620009f0565b600033905090565b60008060009054906101000a900473ffffffffffffffffffffffffffffffffffffffff169050816000806101000a81548173ffffffffffffffffffffffffffffffffffffffff021916908373ffffffffffffffffffffffffffffffffffffffff1602179055508173ffffffffffffffffffffffffffffffffffffffff168173ffffffffffffffffffffffffffffffffffffffff167f8be0079c531659141344cd1fd0a4f28419497f9722a3daafe3b4186f6b6457e060405160405180910390a35050565b50565b600081519050620005d781620009bc565b92915050565b600081519050620005ee81620009d6565b92915050565b60008060008060008060c087890312156200060e57600080fd5b60006200061e89828a01620005c6565b96505060206200063189828a01620005c6565b95505060406200064489828a01620005dd565b94505060606200065789828a01620005dd565b93505060806200066a89828a01620005dd565b92505060a06200067d89828a01620005dd565b9150509295509295509295565b60006200069960268362000793565b9150620006a682620008cf565b604082019050919050565b6000620006c0602e8362000793565b9150620006cd826200091e565b604082019050919050565b6000620006e7602b8362000793565b9150620006f4826200096d565b604082019050919050565b6200070a8162000896565b82525050565b600060208201905081810360008301526200072b816200068a565b9050919050565b600060208201905081810360008301526200074d81620006b1565b9050919050565b600060208201905081810360008301526200076f81620006d8565b9050919050565b60006020820190506200078d6000830184620006ff565b92915050565b600082825260208201905092915050565b6000620007b18262000896565b9150620007be8362000896565b9250827fffffffffffffffffffffffffffffffffffffffffffffffffffffffffffffffff03821115620007f657620007f5620008a0565b5b828201905092915050565b60006200080e8262000896565b91506200081b8362000896565b9250817fffffffffffffffffffffffffffffffffffffffffffffffffffffffffffffffff0483118215151615620008575762000856620008a0565b5b828202905092915050565b60006200086f8262000876565b9050919050565b600073ffffffffffffffffffffffffffffffffffffffff82169050919050565b6000819050919050565b7f4e487b7100000000000000000000000000000000000000000000000000000000600052601160045260246000fd5b7f526573657276652070726963652073686f756c6420626520677265617465722060008201527f7468616e20300000000000000000000000000000000000000000000000000000602082015250565b7f4f666665722070726963652064656372656d656e742073686f756c642062652060008201527f67726561746572207468616e2030000000000000000000000000000000000000602082015250565b7f41756374696f6e206d757374206265206f70656e20666f72206174206c65617360008201527f74206f6e6520626c6f636b000000000000000000000000000000000000000000602082015250565b620009c78162000862565b8114620009d357600080fd5b50565b620009e18162000896565b8114620009ed57600080fd5b50565b611d238062000a006000396000f3fe608060405234801561001057600080fd5b506004361061012c5760003560e01c8063cc996d1b116100ad578063dfafd4fd11610071578063dfafd4fd146102dd578063eb91d37e146102fb578063f1a9af8914610319578063f2fde38b14610337578063fe67a54b146103535761012c565b8063cc996d1b14610247578063d06fcba814610265578063d3642a8814610283578063d57bde79146102a1578063db2e1eed146102bf5761012c565b8063715018a6116100f4578063715018a6146101c55780637e830574146101cf57806386433374146101ed5780638da5cb5b1461020b57806391f90157146102295761012c565b80630cbf54c8146101315780633103ea621461014f578063454a2ab31461016d57806348cd4cb1146101895780636fd902e1146101a7575b600080fd5b61013961035d565b604051610146919061191c565b60405180910390f35b610157610363565b604051610164919061191c565b60405180910390f35b6101876004803603810190610182919061152f565b610369565b005b610191610b91565b60405161019e919061191c565b60405180910390f35b6101af610b97565b6040516101bc919061191c565b60405180910390f35b6101cd610bdb565b005b6101d7610bef565b6040516101e4919061191c565b60405180910390f35b6101f5610bf5565b60405161020291906117ab565b60405180910390f35b610213610c08565b6040516102209190611707565b60405180910390f35b610231610c31565b60405161023e9190611707565b60405180910390f35b61024f610c57565b60405161025c9190611707565b60405180910390f35b61026d610c7d565b60405161027a91906117e1565b60405180910390f35b61028b610ca3565b604051610298919061191c565b60405180910390f35b6102a9610ca9565b6040516102b6919061191c565b60405180910390f35b6102c7610caf565b6040516102d4919061191c565b60405180910390f35b6102e5610cb5565b6040516102f291906117c6565b60405180910390f35b610303610cdb565b604051610310919061191c565b60405180910390f35b610321610e4a565b60405161032e919061191c565b60405180910390f35b610351600480360381019061034c91906114dd565b610e50565b005b61035b610ed4565b005b60065481565b60055481565b61037d67a315e9e63ffe969f60c01b61132a565b610391674563f59892ad6b5f60c01b61132a565b6103a5671e4052a5d2199aa860c01b61132a565b6103b967dd1612fd6debf16f60c01b61132a565b600c60149054906101000a900460ff1615610409576040517f08c379a00000000000000000000000000000000000000000000000000000000081526004016104009061185c565b60405180910390fd5b61041d67858572bb7c37a1f960c01b61132a565b6104316786058640ae515e4c60c01b61132a565b610445673ca5a773963c037a60c01b61132a565b610459678987c89353a14bf060c01b61132a565b600554600a546104699190611948565b4311156104ab576040517f08c379a00000000000000000000000000000000000000000000000000000000081526004016104a2906118dc565b60405180910390fd5b6104bf670966248a065e3cef60c01b61132a565b6104d367bbcffbb45c8400f460c01b61132a565b6104e76719b0206fe4ede28360c01b61132a565b6104fb672ca04cfa61698ea860c01b61132a565b610503610cdb565b811015610545576040517f08c379a000000000000000000000000000000000000000000000000000000000815260040161053c906118fc565b60405180910390fd5b61055967158102165dae4dfc60c01b61132a565b61056d67b2925ce5a3ba532960c01b61132a565b61058167cefed260c8df12a160c01b61132a565b6105956775ea169c4edb784f60c01b61132a565b61059d610c08565b73ffffffffffffffffffffffffffffffffffffffff163373ffffffffffffffffffffffffffffffffffffffff16141561060b576040517f08c379a0000000000000000000000000000000000000000000000000000000008152600401610602906117fc565b60405180910390fd5b61061f673f3fceeba468191360c01b61132a565b610633670650658d5cd8465660c01b61132a565b61064767eac10fcf13c7eba360c01b61132a565b6000600260009054906101000a900473ffffffffffffffffffffffffffffffffffffffff1673ffffffffffffffffffffffffffffffffffffffff1663dd62ed3e33306040518363ffffffff1660e01b81526004016106a6929190611722565b60206040518083038186803b1580156106be57600080fd5b505afa1580156106d2573d6000803e3d6000fd5b505050506040513d601f19601f820116820180604052508101906106f69190611558565b905061070c6732c2c8142c3ecb5160c01b61132a565b610720679f3aaa4baad7777c60c01b61132a565b6107346739d01315b42447c560c01b61132a565b81811015610777576040517f08c379a000000000000000000000000000000000000000000000000000000000815260040161076e9061187c565b60405180910390fd5b61078b67f8cd127cd453c52c60c01b61132a565b61079f67520fa0ce1927e85060c01b61132a565b6107b36789c6502e74bafc8060c01b61132a565b600073ffffffffffffffffffffffffffffffffffffffff16600c60009054906101000a900473ffffffffffffffffffffffffffffffffffffffff1673ffffffffffffffffffffffffffffffffffffffff16146109b85761081d6756d3572f0fc8768760c01b61132a565b6108316702285fa93d37a55560c01b61132a565b61084567903772ee24f92a1960c01b61132a565b600260009054906101000a900473ffffffffffffffffffffffffffffffffffffffff1673ffffffffffffffffffffffffffffffffffffffff1663a9059cbb600c60009054906101000a900473ffffffffffffffffffffffffffffffffffffffff166008546040518363ffffffff1660e01b81526004016108c6929190611782565b602060405180830381600087803b1580156108e057600080fd5b505af11580156108f4573d6000803e3d6000fd5b505050506040513d601f19601f820116820180604052508101906109189190611506565b5061092d67225a409c3e2c551b60c01b61132a565b610941678b84cb28b3bea96c60c01b61132a565b600c60009054906101000a900473ffffffffffffffffffffffffffffffffffffffff1673ffffffffffffffffffffffffffffffffffffffff167f8377883650d2137d6e6d67bcf2dbb9b1dab287d68240a17ff910b9fb7a0ad5ff6008546040516109ab919061191c565b60405180910390a26109cd565b6109cc673bdd45a88dd9dfa660c01b61132a565b5b6109e167346f514ba5c9719260c01b61132a565b6109f567e5b02f628d4a3ae960c01b61132a565b600260009054906101000a900473ffffffffffffffffffffffffffffffffffffffff1673ffffffffffffffffffffffffffffffffffffffff166323b872dd3330856040518463ffffffff1660e01b8152600401610a549392919061174b565b602060405180830381600087803b158015610a6e57600080fd5b505af1158015610a82573d6000803e3d6000fd5b505050506040513d601f19601f82011682018060405250810190610aa69190611506565b50610abb67f5d5923be2bbe14860c01b61132a565b81600881905550610ad6673599a4576a26d1f960c01b61132a565b33600c60006101000a81548173ffffffffffffffffffffffffffffffffffffffff021916908373ffffffffffffffffffffffffffffffffffffffff160217905550610b2b671e89722216c0f52260c01b61132a565b610b3f675efe6924cc617e2f60c01b61132a565b3373ffffffffffffffffffffffffffffffffffffffff167fdd0b6c6a77960e2066c96171b4d7ac9e8b4c184011f38544afa36a5bb63ec59f83604051610b85919061191c565b60405180910390a25050565b600a5481565b6000610bad6797b13db07b358ea460c01b61132a565b610bc167471b7e461adb4bcc60c01b61132a565b610bd567f0f33a09c20c9cc160c01b61132a565b43905090565b610be361132d565b610bed60006113ab565b565b60035481565b600c60149054906101000a900460ff1681565b60008060009054906101000a900473ffffffffffffffffffffffffffffffffffffffff16905090565b600c60009054906101000a900473ffffffffffffffffffffffffffffffffffffffff1681565b600b60009054906101000a900473ffffffffffffffffffffffffffffffffffffffff1681565b600160009054906101000a900473ffffffffffffffffffffffffffffffffffffffff1681565b60075481565b60085481565b60045481565b600260009054906101000a900473ffffffffffffffffffffffffffffffffffffffff1681565b6000610cf16762a358f3226a737d60c01b61132a565b610d0567f5e06f3ba07a2bf760c01b61132a565b610d1967169d3abb076d11e460c01b61132a565b600a54431115610e0557610d37675403d111e722321360c01b61132a565b610d4b6716bf11a214c7b2dc60c01b61132a565b610d5f6773bd3dcd03041d4c60c01b61132a565b6000600a5443610d6f91906119f8565b600754610d7c919061199e565b9050610d9267746284807fd293a760c01b61132a565b610da667fc51443447e1e04060c01b61132a565b80600954118015610dc75750610dc6673906215b6193d73b60c01b61146f565b5b80610de25750610de167342505e8e42fc8ce60c01b61147a565b5b610dee57600454610dfd565b80600954610dfc91906119f8565b5b915050610e47565b610e19670ba70f40d4b842e060c01b61132a565b610e2d6768f24659b045b95660c01b61132a565b610e4167697f2e7cf6d8eb0a60c01b61132a565b60095490505b90565b60095481565b610e5861132d565b600073ffffffffffffffffffffffffffffffffffffffff168173ffffffffffffffffffffffffffffffffffffffff161415610ec8576040517f08c379a0000000000000000000000000000000000000000000000000000000008152600401610ebf9061181c565b60405180910390fd5b610ed1816113ab565b50565b610ee8679969e8bc74397ded60c01b61132a565b610ef061132d565b610f0467e9d39562edd7614460c01b61132a565b610f1867f34fe1ec807861e760c01b61132a565b610f2c671756ab3e8ff0ba4060c01b61132a565b610f4067528a0ef4a5afac3160c01b61132a565b610f5467da2f38867843e67c60c01b61132a565b600c60149054906101000a900460ff1615610fa4576040517f08c379a0000000000000000000000000000000000000000000000000000000008152600401610f9b9061183c565b60405180910390fd5b610fb867f3383d75c2f9082660c01b61132a565b610fcc67b8845e6f2135dbac60c01b61132a565b610fe067ce3438b41861e20e60c01b61132a565b610ff467e1f5757095b7861a60c01b61132a565b600073ffffffffffffffffffffffffffffffffffffffff16600c60009054906101000a900473ffffffffffffffffffffffffffffffffffffffff1673ffffffffffffffffffffffffffffffffffffffff161415611086576040517f08c379a000000000000000000000000000000000000000000000000000000000815260040161107d9061189c565b60405180910390fd5b61109a673aa486797ceaaacc60c01b61132a565b6110ae67b68cb3e64db7e6c460c01b61132a565b6110c267f31b5c48fd4f8aca60c01b61132a565b600260009054906101000a900473ffffffffffffffffffffffffffffffffffffffff1673ffffffffffffffffffffffffffffffffffffffff1663a9059cbb611108610c08565b6008546040518363ffffffff1660e01b8152600401611128929190611782565b602060405180830381600087803b15801561114257600080fd5b505af1158015611156573d6000803e3d6000fd5b505050506040513d601f19601f8201168201806040525081019061117a9190611506565b5061118f67d028b525d3dd286860c01b61132a565b6111a36795d04854994ecfb760c01b61132a565b600160009054906101000a900473ffffffffffffffffffffffffffffffffffffffff1673ffffffffffffffffffffffffffffffffffffffff166323b872dd6111e9610c08565b600c60009054906101000a900473ffffffffffffffffffffffffffffffffffffffff166003546040518463ffffffff1660e01b815260040161122d9392919061174b565b600060405180830381600087803b15801561124757600080fd5b505af115801561125b573d6000803e3d6000fd5b5050505061127367ddc9e66783559f6c60c01b61132a565b6001600c60146101000a81548160ff0219169083151502179055506112a267c8d7db24861c829160c01b61132a565b6112b667e5100e172ddf1e9460c01b61132a565b600c60009054906101000a900473ffffffffffffffffffffffffffffffffffffffff1673ffffffffffffffffffffffffffffffffffffffff167fdaec4582d5d9595688c8c98545fdd1c696d41c6aeaeb636737e84ed2f5c00eda600854604051611320919061191c565b60405180910390a2565b50565b611335611481565b73ffffffffffffffffffffffffffffffffffffffff16611353610c08565b73ffffffffffffffffffffffffffffffffffffffff16146113a9576040517f08c379a00000000000000000000000000000000000000000000000000000000081526004016113a0906118bc565b60405180910390fd5b565b60008060009054906101000a900473ffffffffffffffffffffffffffffffffffffffff169050816000806101000a81548173ffffffffffffffffffffffffffffffffffffffff021916908373ffffffffffffffffffffffffffffffffffffffff1602179055508173ffffffffffffffffffffffffffffffffffffffff168173ffffffffffffffffffffffffffffffffffffffff167f8be0079c531659141344cd1fd0a4f28419497f9722a3daafe3b4186f6b6457e060405160405180910390a35050565b600060019050919050565b6000919050565b600033905090565b60008135905061149881611ca8565b92915050565b6000815190506114ad81611cbf565b92915050565b6000813590506114c281611cd6565b92915050565b6000815190506114d781611cd6565b92915050565b6000602082840312156114ef57600080fd5b60006114fd84828501611489565b91505092915050565b60006020828403121561151857600080fd5b60006115268482850161149e565b91505092915050565b60006020828403121561154157600080fd5b600061154f848285016114b3565b91505092915050565b60006020828403121561156a57600080fd5b6000611578848285016114c8565b91505092915050565b61158a81611a2c565b82525050565b61159981611a3e565b82525050565b6115a881611a74565b82525050565b6115b781611a98565b82525050565b60006115ca601883611937565b91506115d582611aeb565b602082019050919050565b60006115ed602683611937565b91506115f882611b14565b604082019050919050565b6000611610601983611937565b915061161b82611b63565b602082019050919050565b6000611633601183611937565b915061163e82611b8c565b602082019050919050565b6000611656601983611937565b915061166182611bb5565b602082019050919050565b6000611679601083611937565b915061168482611bde565b602082019050919050565b600061169c602083611937565b91506116a782611c07565b602082019050919050565b60006116bf601183611937565b91506116ca82611c30565b602082019050919050565b60006116e2602383611937565b91506116ed82611c59565b604082019050919050565b61170181611a6a565b82525050565b600060208201905061171c6000830184611581565b92915050565b60006040820190506117376000830185611581565b6117446020830184611581565b9392505050565b60006060820190506117606000830186611581565b61176d6020830185611581565b61177a60408301846116f8565b949350505050565b60006040820190506117976000830185611581565b6117a460208301846116f8565b9392505050565b60006020820190506117c06000830184611590565b92915050565b60006020820190506117db600083018461159f565b92915050565b60006020820190506117f660008301846115ae565b92915050565b60006020820190508181036000830152611815816115bd565b9050919050565b60006020820190508181036000830152611835816115e0565b9050919050565b6000602082019050818103600083015261185581611603565b9050919050565b6000602082019050818103600083015261187581611626565b9050919050565b6000602082019050818103600083015261189581611649565b9050919050565b600060208201905081810360008301526118b58161166c565b9050919050565b600060208201905081810360008301526118d58161168f565b9050919050565b600060208201905081810360008301526118f5816116b2565b9050919050565b60006020820190508181036000830152611915816116d5565b9050919050565b600060208201905061193160008301846116f8565b92915050565b600082825260208201905092915050565b600061195382611a6a565b915061195e83611a6a565b9250827fffffffffffffffffffffffffffffffffffffffffffffffffffffffffffffffff0382111561199357611992611abc565b5b828201905092915050565b60006119a982611a6a565b91506119b483611a6a565b9250817fffffffffffffffffffffffffffffffffffffffffffffffffffffffffffffffff04831182151516156119ed576119ec611abc565b5b828202905092915050565b6000611a0382611a6a565b9150611a0e83611a6a565b925082821015611a2157611a20611abc565b5b828203905092915050565b6000611a3782611a4a565b9050919050565b60008115159050919050565b600073ffffffffffffffffffffffffffffffffffffffff82169050919050565b6000819050919050565b6000611a7f82611a86565b9050919050565b6000611a9182611a4a565b9050919050565b6000611aa382611aaa565b9050919050565b6000611ab582611a4a565b9050919050565b7f4e487b7100000000000000000000000000000000000000000000000000000000600052601160045260246000fd5b7f4f776e65722063616e6e6f7420706c6163652061206269640000000000000000600082015250565b7f4f776e61626c653a206e6577206f776e657220697320746865207a65726f206160008201527f6464726573730000000000000000000000000000000000000000000000000000602082015250565b7f41756374696f6e2068617320616c726561647920656e64656400000000000000600082015250565b7f41756374696f6e2068617320656e646564000000000000000000000000000000600082015250565b7f436865636b2074686520746f6b656e20616c6c6f77616e636500000000000000600082015250565b7f4e6f206269647320726563656976656400000000000000000000000000000000600082015250565b7f4f776e61626c653a2063616c6c6572206973206e6f7420746865206f776e6572600082015250565b7f41756374696f6e20697320636c6f736564000000000000000000000000000000600082015250565b7f426964206973206c6f776572207468616e20746865207265736572766520707260008201527f6963650000000000000000000000000000000000000000000000000000000000602082015250565b611cb181611a2c565b8114611cbc57600080fd5b50565b611cc881611a3e565b8114611cd357600080fd5b50565b611cdf81611a6a565b8114611cea57600080fd5b5056fea2646970667358221220259f091e1c1b23ae2de6a54e2fd2bd8e6d48f113453b522b7713fb57af6df44264736f6c63430008040033","opcodes":"PUSH1 0x80 PUSH1 0x40 MSTORE CALLVALUE DUP1 ISZERO PUSH3 0x11 JUMPI PUSH1 0x0 DUP1 REVERT JUMPDEST POP PUSH1 0x40 MLOAD PUSH3 0x2723 CODESIZE SUB DUP1 PUSH3 0x2723 DUP4 CODECOPY DUP2 DUP2 ADD PUSH1 0x40 MSTORE DUP2 ADD SWAP1 PUSH3 0x37 SWAP2 SWAP1 PUSH3 0x5F4 JUMP JUMPDEST PUSH3 0x57 PUSH3 0x4B PUSH3 0x4F7 PUSH1 0x20 SHL PUSH1 0x20 SHR JUMP JUMPDEST PUSH3 0x4FF PUSH1 0x20 SHL PUSH1 0x20 SHR JUMP JUMPDEST PUSH3 0x73 PUSH8 0x85A336C5F98FE62F PUSH1 0xC0 SHL PUSH3 0x5C3 PUSH1 0x20 SHL PUSH1 0x20 SHR JUMP JUMPDEST PUSH3 0x8F PUSH8 0x43AE8D156AC7A7A6 PUSH1 0xC0 SHL PUSH3 0x5C3 PUSH1 0x20 SHL PUSH1 0x20 SHR JUMP JUMPDEST PUSH3 0xAB PUSH8 0x67A7BB31D5A4AF8F PUSH1 0xC0 SHL PUSH3 0x5C3 PUSH1 0x20 SHL PUSH1 0x20 SHR JUMP JUMPDEST PUSH3 0xC7 PUSH8 0x5AF36AEF3F689432 PUSH1 0xC0 SHL PUSH3 0x5C3 PUSH1 0x20 SHL PUSH1 0x20 SHR JUMP JUMPDEST PUSH1 0x0 DUP4 GT PUSH3 0x10D JUMPI PUSH1 0x40 MLOAD PUSH32 0x8C379A000000000000000000000000000000000000000000000000000000000 DUP2 MSTORE PUSH1 0x4 ADD PUSH3 0x104 SWAP1 PUSH3 0x710 JUMP JUMPDEST PUSH1 0x40 MLOAD DUP1 SWAP2 SUB SWAP1 REVERT JUMPDEST PUSH3 0x129 PUSH8 0xE7B4E4A91FC1DB7C PUSH1 0xC0 SHL PUSH3 0x5C3 PUSH1 0x20 SHL PUSH1 0x20 SHR JUMP JUMPDEST PUSH3 0x145 PUSH8 0x4C2C013797BBCBE6 PUSH1 0xC0 SHL PUSH3 0x5C3 PUSH1 0x20 SHL PUSH1 0x20 SHR JUMP JUMPDEST PUSH3 0x161 PUSH8 0x33D4093EAD0F711C PUSH1 0xC0 SHL PUSH3 0x5C3 PUSH1 0x20 SHL PUSH1 0x20 SHR JUMP JUMPDEST PUSH3 0x17D PUSH8 0x45486BE4595B9C2E PUSH1 0xC0 SHL PUSH3 0x5C3 PUSH1 0x20 SHL PUSH1 0x20 SHR JUMP JUMPDEST PUSH1 0x0 DUP2 GT PUSH3 0x1C3 JUMPI PUSH1 0x40 MLOAD PUSH32 0x8C379A000000000000000000000000000000000000000000000000000000000 DUP2 MSTORE PUSH1 0x4 ADD PUSH3 0x1BA SWAP1 PUSH3 0x732 JUMP JUMPDEST PUSH1 0x40 MLOAD DUP1 SWAP2 SUB SWAP1 REVERT JUMPDEST PUSH3 0x1DF PUSH8 0x622A24A6A53D0318 PUSH1 0xC0 SHL PUSH3 0x5C3 PUSH1 0x20 SHL PUSH1 0x20 SHR JUMP JUMPDEST PUSH3 0x1FB PUSH8 0xA568BDD0FC3D349D PUSH1 0xC0 SHL PUSH3 0x5C3 PUSH1 0x20 SHL PUSH1 0x20 SHR JUMP JUMPDEST PUSH3 0x217 PUSH8 0xD5DF146265B2DD1D PUSH1 0xC0 SHL PUSH3 0x5C3 PUSH1 0x20 SHL PUSH1 0x20 SHR JUMP JUMPDEST PUSH3 0x233 PUSH8 0x6C2C04DF6993E72B PUSH1 0xC0 SHL PUSH3 0x5C3 PUSH1 0x20 SHL PUSH1 0x20 SHR JUMP JUMPDEST PUSH1 0x0 DUP3 GT PUSH3 0x279 JUMPI PUSH1 0x40 MLOAD PUSH32 0x8C379A000000000000000000000000000000000000000000000000000000000 DUP2 MSTORE PUSH1 0x4 ADD PUSH3 0x270 SWAP1 PUSH3 0x754 JUMP JUMPDEST PUSH1 0x40 MLOAD DUP1 SWAP2 SUB SWAP1 REVERT JUMPDEST PUSH3 0x295 PUSH8 0xDDC2FBB8E990A243 PUSH1 0xC0 SHL PUSH3 0x5C3 PUSH1 0x20 SHL PUSH1 0x20 SHR JUMP JUMPDEST PUSH3 0x2B1 PUSH8 0xF6D2CBA10A18C24 PUSH1 0xC0 SHL PUSH3 0x5C3 PUSH1 0x20 SHL PUSH1 0x20 SHR JUMP JUMPDEST DUP5 PUSH1 0x1 PUSH1 0x0 PUSH2 0x100 EXP DUP2 SLOAD DUP2 PUSH20 0xFFFFFFFFFFFFFFFFFFFFFFFFFFFFFFFFFFFFFFFF MUL NOT AND SWAP1 DUP4 PUSH20 0xFFFFFFFFFFFFFFFFFFFFFFFFFFFFFFFFFFFFFFFF AND MUL OR SWAP1 SSTORE POP PUSH3 0x30E PUSH8 0xE4539CDAD9784AF1 PUSH1 0xC0 SHL PUSH3 0x5C3 PUSH1 0x20 SHL PUSH1 0x20 SHR JUMP JUMPDEST DUP6 PUSH1 0x2 PUSH1 0x0 PUSH2 0x100 EXP DUP2 SLOAD DUP2 PUSH20 0xFFFFFFFFFFFFFFFFFFFFFFFFFFFFFFFFFFFFFFFF MUL NOT AND SWAP1 DUP4 PUSH20 0xFFFFFFFFFFFFFFFFFFFFFFFFFFFFFFFFFFFFFFFF AND MUL OR SWAP1 SSTORE POP PUSH3 0x36B PUSH8 0xD88CF4C7F0C6BF6C PUSH1 0xC0 SHL PUSH3 0x5C3 PUSH1 0x20 SHL PUSH1 0x20 SHR JUMP JUMPDEST DUP4 PUSH1 0x3 DUP2 SWAP1 SSTORE POP PUSH3 0x38E PUSH8 0x74C9719099E8906E PUSH1 0xC0 SHL PUSH3 0x5C3 PUSH1 0x20 SHL PUSH1 0x20 SHR JUMP JUMPDEST DUP3 PUSH1 0x4 DUP2 SWAP1 SSTORE POP PUSH3 0x3B1 PUSH8 0x39CD8F8EA954D586 PUSH1 0xC0 SHL PUSH3 0x5C3 PUSH1 0x20 SHL PUSH1 0x20 SHR JUMP JUMPDEST DUP2 PUSH1 0x5 DUP2 SWAP1 SSTORE POP PUSH3 0x3D4 PUSH8 0xE826EBCD99677642 PUSH1 0xC0 SHL PUSH3 0x5C3 PUSH1 0x20 SHL PUSH1 0x20 SHR JUMP JUMPDEST DUP1 PUSH1 0x7 DUP2 SWAP1 SSTORE POP PUSH3 0x3F7 PUSH8 0xDFD1125AC64CE779 PUSH1 0xC0 SHL PUSH3 0x5C3 PUSH1 0x20 SHL PUSH1 0x20 SHR JUMP JUMPDEST PUSH1 0x7 SLOAD PUSH1 0x5 SLOAD PUSH3 0x409 SWAP2 SWAP1 PUSH3 0x801 JUMP JUMPDEST PUSH1 0x4 SLOAD PUSH3 0x418 SWAP2 SWAP1 PUSH3 0x7A4 JUMP JUMPDEST PUSH1 0x9 DUP2 SWAP1 SSTORE POP PUSH3 0x43A PUSH8 0xF91BC79FC549ACB PUSH1 0xC0 SHL PUSH3 0x5C3 PUSH1 0x20 SHL PUSH1 0x20 SHR JUMP JUMPDEST NUMBER PUSH1 0xA DUP2 SWAP1 SSTORE POP PUSH3 0x45D PUSH8 0x467568A5D10F0A4B PUSH1 0xC0 SHL PUSH3 0x5C3 PUSH1 0x20 SHL PUSH1 0x20 SHR JUMP JUMPDEST PUSH1 0x0 PUSH1 0xC PUSH1 0x14 PUSH2 0x100 EXP DUP2 SLOAD DUP2 PUSH1 0xFF MUL NOT AND SWAP1 DUP4 ISZERO ISZERO MUL OR SWAP1 SSTORE POP PUSH3 0x494 PUSH8 0x723C8C9C9DE6AD9 PUSH1 0xC0 SHL PUSH3 0x5C3 PUSH1 0x20 SHL PUSH1 0x20 SHR JUMP JUMPDEST PUSH3 0x4B0 PUSH8 0x8B4DFFB3CBB3661F PUSH1 0xC0 SHL PUSH3 0x5C3 PUSH1 0x20 SHL PUSH1 0x20 SHR JUMP JUMPDEST PUSH32 0x1BB96DFF6AB5005AFF98CDC0CF176BB7D8E0423CB48E02217D35B042CEC81E9F PUSH1 0x9 SLOAD PUSH1 0x40 MLOAD PUSH3 0x4E3 SWAP2 SWAP1 PUSH3 0x776 JUMP JUMPDEST PUSH1 0x40 MLOAD DUP1 SWAP2 SUB SWAP1 LOG1 POP POP POP POP POP POP PUSH3 0x9F0 JUMP JUMPDEST PUSH1 0x0 CALLER SWAP1 POP SWAP1 JUMP JUMPDEST PUSH1 0x0 DUP1 PUSH1 0x0 SWAP1 SLOAD SWAP1 PUSH2 0x100 EXP SWAP1 DIV PUSH20 0xFFFFFFFFFFFFFFFFFFFFFFFFFFFFFFFFFFFFFFFF AND SWAP1 POP DUP2 PUSH1 0x0 DUP1 PUSH2 0x100 EXP DUP2 SLOAD DUP2 PUSH20 0xFFFFFFFFFFFFFFFFFFFFFFFFFFFFFFFFFFFFFFFF MUL NOT AND SWAP1 DUP4 PUSH20 0xFFFFFFFFFFFFFFFFFFFFFFFFFFFFFFFFFFFFFFFF AND MUL OR SWAP1 SSTORE POP DUP2 PUSH20 0xFFFFFFFFFFFFFFFFFFFFFFFFFFFFFFFFFFFFFFFF AND DUP2 PUSH20 0xFFFFFFFFFFFFFFFFFFFFFFFFFFFFFFFFFFFFFFFF AND PUSH32 0x8BE0079C531659141344CD1FD0A4F28419497F9722A3DAAFE3B4186F6B6457E0 PUSH1 0x40 MLOAD PUSH1 0x40 MLOAD DUP1 SWAP2 SUB SWAP1 LOG3 POP POP JUMP JUMPDEST POP JUMP JUMPDEST PUSH1 0x0 DUP2 MLOAD SWAP1 POP PUSH3 0x5D7 DUP2 PUSH3 0x9BC JUMP JUMPDEST SWAP3 SWAP2 POP POP JUMP JUMPDEST PUSH1 0x0 DUP2 MLOAD SWAP1 POP PUSH3 0x5EE DUP2 PUSH3 0x9D6 JUMP JUMPDEST SWAP3 SWAP2 POP POP JUMP JUMPDEST PUSH1 0x0 DUP1 PUSH1 0x0 DUP1 PUSH1 0x0 DUP1 PUSH1 0xC0 DUP8 DUP10 SUB SLT ISZERO PUSH3 0x60E JUMPI PUSH1 0x0 DUP1 REVERT JUMPDEST PUSH1 0x0 PUSH3 0x61E DUP10 DUP3 DUP11 ADD PUSH3 0x5C6 JUMP JUMPDEST SWAP7 POP POP PUSH1 0x20 PUSH3 0x631 DUP10 DUP3 DUP11 ADD PUSH3 0x5C6 JUMP JUMPDEST SWAP6 POP POP PUSH1 0x40 PUSH3 0x644 DUP10 DUP3 DUP11 ADD PUSH3 0x5DD JUMP JUMPDEST SWAP5 POP POP PUSH1 0x60 PUSH3 0x657 DUP10 DUP3 DUP11 ADD PUSH3 0x5DD JUMP JUMPDEST SWAP4 POP POP PUSH1 0x80 PUSH3 0x66A DUP10 DUP3 DUP11 ADD PUSH3 0x5DD JUMP JUMPDEST SWAP3 POP POP PUSH1 0xA0 PUSH3 0x67D DUP10 DUP3 DUP11 ADD PUSH3 0x5DD JUMP JUMPDEST SWAP2 POP POP SWAP3 SWAP6 POP SWAP3 SWAP6 POP SWAP3 SWAP6 JUMP JUMPDEST PUSH1 0x0 PUSH3 0x699 PUSH1 0x26 DUP4 PUSH3 0x793 JUMP JUMPDEST SWAP2 POP PUSH3 0x6A6 DUP3 PUSH3 0x8CF JUMP JUMPDEST PUSH1 0x40 DUP3 ADD SWAP1 POP SWAP2 SWAP1 POP JUMP JUMPDEST PUSH1 0x0 PUSH3 0x6C0 PUSH1 0x2E DUP4 PUSH3 0x793 JUMP JUMPDEST SWAP2 POP PUSH3 0x6CD DUP3 PUSH3 0x91E JUMP JUMPDEST PUSH1 0x40 DUP3 ADD SWAP1 POP SWAP2 SWAP1 POP JUMP JUMPDEST PUSH1 0x0 PUSH3 0x6E7 PUSH1 0x2B DUP4 PUSH3 0x793 JUMP JUMPDEST SWAP2 POP PUSH3 0x6F4 DUP3 PUSH3 0x96D JUMP JUMPDEST PUSH1 0x40 DUP3 ADD SWAP1 POP SWAP2 SWAP1 POP JUMP JUMPDEST PUSH3 0x70A DUP2 PUSH3 0x896 JUMP JUMPDEST DUP3 MSTORE POP POP JUMP JUMPDEST PUSH1 0x0 PUSH1 0x20 DUP3 ADD SWAP1 POP DUP2 DUP2 SUB PUSH1 0x0 DUP4 ADD MSTORE PUSH3 0x72B DUP2 PUSH3 0x68A JUMP JUMPDEST SWAP1 POP SWAP2 SWAP1 POP JUMP JUMPDEST PUSH1 0x0 PUSH1 0x20 DUP3 ADD SWAP1 POP DUP2 DUP2 SUB PUSH1 0x0 DUP4 ADD MSTORE PUSH3 0x74D DUP2 PUSH3 0x6B1 JUMP JUMPDEST SWAP1 POP SWAP2 SWAP1 POP JUMP JUMPDEST PUSH1 0x0 PUSH1 0x20 DUP3 ADD SWAP1 POP DUP2 DUP2 SUB PUSH1 0x0 DUP4 ADD MSTORE PUSH3 0x76F DUP2 PUSH3 0x6D8 JUMP JUMPDEST SWAP1 POP SWAP2 SWAP1 POP JUMP JUMPDEST PUSH1 0x0 PUSH1 0x20 DUP3 ADD SWAP1 POP PUSH3 0x78D PUSH1 0x0 DUP4 ADD DUP5 PUSH3 0x6FF JUMP JUMPDEST SWAP3 SWAP2 POP POP JUMP JUMPDEST PUSH1 0x0 DUP3 DUP3 MSTORE PUSH1 0x20 DUP3 ADD SWAP1 POP SWAP3 SWAP2 POP POP JUMP JUMPDEST PUSH1 0x0 PUSH3 0x7B1 DUP3 PUSH3 0x896 JUMP JUMPDEST SWAP2 POP PUSH3 0x7BE DUP4 PUSH3 0x896 JUMP JUMPDEST SWAP3 POP DUP3 PUSH32 0xFFFFFFFFFFFFFFFFFFFFFFFFFFFFFFFFFFFFFFFFFFFFFFFFFFFFFFFFFFFFFFFF SUB DUP3 GT ISZERO PUSH3 0x7F6 JUMPI PUSH3 0x7F5 PUSH3 0x8A0 JUMP JUMPDEST JUMPDEST DUP3 DUP3 ADD SWAP1 POP SWAP3 SWAP2 POP POP JUMP JUMPDEST PUSH1 0x0 PUSH3 0x80E DUP3 PUSH3 0x896 JUMP JUMPDEST SWAP2 POP PUSH3 0x81B DUP4 PUSH3 0x896 JUMP JUMPDEST SWAP3 POP DUP2 PUSH32 0xFFFFFFFFFFFFFFFFFFFFFFFFFFFFFFFFFFFFFFFFFFFFFFFFFFFFFFFFFFFFFFFF DIV DUP4 GT DUP3 ISZERO ISZERO AND ISZERO PUSH3 0x857 JUMPI PUSH3 0x856 PUSH3 0x8A0 JUMP JUMPDEST JUMPDEST DUP3 DUP3 MUL SWAP1 POP SWAP3 SWAP2 POP POP JUMP JUMPDEST PUSH1 0x0 PUSH3 0x86F DUP3 PUSH3 0x876 JUMP JUMPDEST SWAP1 POP SWAP2 SWAP1 POP JUMP JUMPDEST PUSH1 0x0 PUSH20 0xFFFFFFFFFFFFFFFFFFFFFFFFFFFFFFFFFFFFFFFF DUP3 AND SWAP1 POP SWAP2 SWAP1 POP JUMP JUMPDEST PUSH1 0x0 DUP2 SWAP1 POP SWAP2 SWAP1 POP JUMP JUMPDEST PUSH32 0x4E487B7100000000000000000000000000000000000000000000000000000000 PUSH1 0x0 MSTORE PUSH1 0x11 PUSH1 0x4 MSTORE PUSH1 0x24 PUSH1 0x0 REVERT JUMPDEST PUSH32 0x526573657276652070726963652073686F756C64206265206772656174657220 PUSH1 0x0 DUP3 ADD MSTORE PUSH32 0x7468616E20300000000000000000000000000000000000000000000000000000 PUSH1 0x20 DUP3 ADD MSTORE POP JUMP JUMPDEST PUSH32 0x4F666665722070726963652064656372656D656E742073686F756C6420626520 PUSH1 0x0 DUP3 ADD MSTORE PUSH32 0x67726561746572207468616E2030000000000000000000000000000000000000 PUSH1 0x20 DUP3 ADD MSTORE POP JUMP JUMPDEST PUSH32 0x41756374696F6E206D757374206265206F70656E20666F72206174206C656173 PUSH1 0x0 DUP3 ADD MSTORE PUSH32 0x74206F6E6520626C6F636B000000000000000000000000000000000000000000 PUSH1 0x20 DUP3 ADD MSTORE POP JUMP JUMPDEST PUSH3 0x9C7 DUP2 PUSH3 0x862 JUMP JUMPDEST DUP2 EQ PUSH3 0x9D3 JUMPI PUSH1 0x0 DUP1 REVERT JUMPDEST POP JUMP JUMPDEST PUSH3 0x9E1 DUP2 PUSH3 0x896 JUMP JUMPDEST DUP2 EQ PUSH3 0x9ED JUMPI PUSH1 0x0 DUP1 REVERT JUMPDEST POP JUMP JUMPDEST PUSH2 0x1D23 DUP1 PUSH3 0xA00 PUSH1 0x0 CODECOPY PUSH1 0x0 RETURN INVALID PUSH1 0x80 PUSH1 0x40 MSTORE CALLVALUE DUP1 ISZERO PUSH2 0x10 JUMPI PUSH1 0x0 DUP1 REVERT JUMPDEST POP PUSH1 0x4 CALLDATASIZE LT PUSH2 0x12C JUMPI PUSH1 0x0 CALLDATALOAD PUSH1 0xE0 SHR DUP1 PUSH4 0xCC996D1B GT PUSH2 0xAD JUMPI DUP1 PUSH4 0xDFAFD4FD GT PUSH2 0x71 JUMPI DUP1 PUSH4 0xDFAFD4FD EQ PUSH2 0x2DD JUMPI DUP1 PUSH4 0xEB91D37E EQ PUSH2 0x2FB JUMPI DUP1 PUSH4 0xF1A9AF89 EQ PUSH2 0x319 JUMPI DUP1 PUSH4 0xF2FDE38B EQ PUSH2 0x337 JUMPI DUP1 PUSH4 0xFE67A54B EQ PUSH2 0x353 JUMPI PUSH2 0x12C JUMP JUMPDEST DUP1 PUSH4 0xCC996D1B EQ PUSH2 0x247 JUMPI DUP1 PUSH4 0xD06FCBA8 EQ PUSH2 0x265 JUMPI DUP1 PUSH4 0xD3642A88 EQ PUSH2 0x283 JUMPI DUP1 PUSH4 0xD57BDE79 EQ PUSH2 0x2A1 JUMPI DUP1 PUSH4 0xDB2E1EED EQ PUSH2 0x2BF JUMPI PUSH2 0x12C JUMP JUMPDEST DUP1 PUSH4 0x715018A6 GT PUSH2 0xF4 JUMPI DUP1 PUSH4 0x715018A6 EQ PUSH2 0x1C5 JUMPI DUP1 PUSH4 0x7E830574 EQ PUSH2 0x1CF JUMPI DUP1 PUSH4 0x86433374 EQ PUSH2 0x1ED JUMPI DUP1 PUSH4 0x8DA5CB5B EQ PUSH2 0x20B JUMPI DUP1 PUSH4 0x91F90157 EQ PUSH2 0x229 JUMPI PUSH2 0x12C JUMP JUMPDEST DUP1 PUSH4 0xCBF54C8 EQ PUSH2 0x131 JUMPI DUP1 PUSH4 0x3103EA62 EQ PUSH2 0x14F JUMPI DUP1 PUSH4 0x454A2AB3 EQ PUSH2 0x16D JUMPI DUP1 PUSH4 0x48CD4CB1 EQ PUSH2 0x189 JUMPI DUP1 PUSH4 0x6FD902E1 EQ PUSH2 0x1A7 JUMPI JUMPDEST PUSH1 0x0 DUP1 REVERT JUMPDEST PUSH2 0x139 PUSH2 0x35D JUMP JUMPDEST PUSH1 0x40 MLOAD PUSH2 0x146 SWAP2 SWAP1 PUSH2 0x191C JUMP JUMPDEST PUSH1 0x40 MLOAD DUP1 SWAP2 SUB SWAP1 RETURN JUMPDEST PUSH2 0x157 PUSH2 0x363 JUMP JUMPDEST PUSH1 0x40 MLOAD PUSH2 0x164 SWAP2 SWAP1 PUSH2 0x191C JUMP JUMPDEST PUSH1 0x40 MLOAD DUP1 SWAP2 SUB SWAP1 RETURN JUMPDEST PUSH2 0x187 PUSH1 0x4 DUP1 CALLDATASIZE SUB DUP2 ADD SWAP1 PUSH2 0x182 SWAP2 SWAP1 PUSH2 0x152F JUMP JUMPDEST PUSH2 0x369 JUMP JUMPDEST STOP JUMPDEST PUSH2 0x191 PUSH2 0xB91 JUMP JUMPDEST PUSH1 0x40 MLOAD PUSH2 0x19E SWAP2 SWAP1 PUSH2 0x191C JUMP JUMPDEST PUSH1 0x40 MLOAD DUP1 SWAP2 SUB SWAP1 RETURN JUMPDEST PUSH2 0x1AF PUSH2 0xB97 JUMP JUMPDEST PUSH1 0x40 MLOAD PUSH2 0x1BC SWAP2 SWAP1 PUSH2 0x191C JUMP JUMPDEST PUSH1 0x40 MLOAD DUP1 SWAP2 SUB SWAP1 RETURN JUMPDEST PUSH2 0x1CD PUSH2 0xBDB JUMP JUMPDEST STOP JUMPDEST PUSH2 0x1D7 PUSH2 0xBEF JUMP JUMPDEST PUSH1 0x40 MLOAD PUSH2 0x1E4 SWAP2 SWAP1 PUSH2 0x191C JUMP JUMPDEST PUSH1 0x40 MLOAD DUP1 SWAP2 SUB SWAP1 RETURN JUMPDEST PUSH2 0x1F5 PUSH2 0xBF5 JUMP JUMPDEST PUSH1 0x40 MLOAD PUSH2 0x202 SWAP2 SWAP1 PUSH2 0x17AB JUMP JUMPDEST PUSH1 0x40 MLOAD DUP1 SWAP2 SUB SWAP1 RETURN JUMPDEST PUSH2 0x213 PUSH2 0xC08 JUMP JUMPDEST PUSH1 0x40 MLOAD PUSH2 0x220 SWAP2 SWAP1 PUSH2 0x1707 JUMP JUMPDEST PUSH1 0x40 MLOAD DUP1 SWAP2 SUB SWAP1 RETURN JUMPDEST PUSH2 0x231 PUSH2 0xC31 JUMP JUMPDEST PUSH1 0x40 MLOAD PUSH2 0x23E SWAP2 SWAP1 PUSH2 0x1707 JUMP JUMPDEST PUSH1 0x40 MLOAD DUP1 SWAP2 SUB SWAP1 RETURN JUMPDEST PUSH2 0x24F PUSH2 0xC57 JUMP JUMPDEST PUSH1 0x40 MLOAD PUSH2 0x25C SWAP2 SWAP1 PUSH2 0x1707 JUMP JUMPDEST PUSH1 0x40 MLOAD DUP1 SWAP2 SUB SWAP1 RETURN JUMPDEST PUSH2 0x26D PUSH2 0xC7D JUMP JUMPDEST PUSH1 0x40 MLOAD PUSH2 0x27A SWAP2 SWAP1 PUSH2 0x17E1 JUMP JUMPDEST PUSH1 0x40 MLOAD DUP1 SWAP2 SUB SWAP1 RETURN JUMPDEST PUSH2 0x28B PUSH2 0xCA3 JUMP JUMPDEST PUSH1 0x40 MLOAD PUSH2 0x298 SWAP2 SWAP1 PUSH2 0x191C JUMP JUMPDEST PUSH1 0x40 MLOAD DUP1 SWAP2 SUB SWAP1 RETURN JUMPDEST PUSH2 0x2A9 PUSH2 0xCA9 JUMP JUMPDEST PUSH1 0x40 MLOAD PUSH2 0x2B6 SWAP2 SWAP1 PUSH2 0x191C JUMP JUMPDEST PUSH1 0x40 MLOAD DUP1 SWAP2 SUB SWAP1 RETURN JUMPDEST PUSH2 0x2C7 PUSH2 0xCAF JUMP JUMPDEST PUSH1 0x40 MLOAD PUSH2 0x2D4 SWAP2 SWAP1 PUSH2 0x191C JUMP JUMPDEST PUSH1 0x40 MLOAD DUP1 SWAP2 SUB SWAP1 RETURN JUMPDEST PUSH2 0x2E5 PUSH2 0xCB5 JUMP JUMPDEST PUSH1 0x40 MLOAD PUSH2 0x2F2 SWAP2 SWAP1 PUSH2 0x17C6 JUMP JUMPDEST PUSH1 0x40 MLOAD DUP1 SWAP2 SUB SWAP1 RETURN JUMPDEST PUSH2 0x303 PUSH2 0xCDB JUMP JUMPDEST PUSH1 0x40 MLOAD PUSH2 0x310 SWAP2 SWAP1 PUSH2 0x191C JUMP JUMPDEST PUSH1 0x40 MLOAD DUP1 SWAP2 SUB SWAP1 RETURN JUMPDEST PUSH2 0x321 PUSH2 0xE4A JUMP JUMPDEST PUSH1 0x40 MLOAD PUSH2 0x32E SWAP2 SWAP1 PUSH2 0x191C JUMP JUMPDEST PUSH1 0x40 MLOAD DUP1 SWAP2 SUB SWAP1 RETURN JUMPDEST PUSH2 0x351 PUSH1 0x4 DUP1 CALLDATASIZE SUB DUP2 ADD SWAP1 PUSH2 0x34C SWAP2 SWAP1 PUSH2 0x14DD JUMP JUMPDEST PUSH2 0xE50 JUMP JUMPDEST STOP JUMPDEST PUSH2 0x35B PUSH2 0xED4 JUMP JUMPDEST STOP JUMPDEST PUSH1 0x6 SLOAD DUP2 JUMP JUMPDEST PUSH1 0x5 SLOAD DUP2 JUMP JUMPDEST PUSH2 0x37D PUSH8 0xA315E9E63FFE969F PUSH1 0xC0 SHL PUSH2 0x132A JUMP JUMPDEST PUSH2 0x391 PUSH8 0x4563F59892AD6B5F PUSH1 0xC0 SHL PUSH2 0x132A JUMP JUMPDEST PUSH2 0x3A5 PUSH8 0x1E4052A5D2199AA8 PUSH1 0xC0 SHL PUSH2 0x132A JUMP JUMPDEST PUSH2 0x3B9 PUSH8 0xDD1612FD6DEBF16F PUSH1 0xC0 SHL PUSH2 0x132A JUMP JUMPDEST PUSH1 0xC PUSH1 0x14 SWAP1 SLOAD SWAP1 PUSH2 0x100 EXP SWAP1 DIV PUSH1 0xFF AND ISZERO PUSH2 0x409 JUMPI PUSH1 0x40 MLOAD PUSH32 0x8C379A000000000000000000000000000000000000000000000000000000000 DUP2 MSTORE PUSH1 0x4 ADD PUSH2 0x400 SWAP1 PUSH2 0x185C JUMP JUMPDEST PUSH1 0x40 MLOAD DUP1 SWAP2 SUB SWAP1 REVERT JUMPDEST PUSH2 0x41D PUSH8 0x858572BB7C37A1F9 PUSH1 0xC0 SHL PUSH2 0x132A JUMP JUMPDEST PUSH2 0x431 PUSH8 0x86058640AE515E4C PUSH1 0xC0 SHL PUSH2 0x132A JUMP JUMPDEST PUSH2 0x445 PUSH8 0x3CA5A773963C037A PUSH1 0xC0 SHL PUSH2 0x132A JUMP JUMPDEST PUSH2 0x459 PUSH8 0x8987C89353A14BF0 PUSH1 0xC0 SHL PUSH2 0x132A JUMP JUMPDEST PUSH1 0x5 SLOAD PUSH1 0xA SLOAD PUSH2 0x469 SWAP2 SWAP1 PUSH2 0x1948 JUMP JUMPDEST NUMBER GT ISZERO PUSH2 0x4AB JUMPI PUSH1 0x40 MLOAD PUSH32 0x8C379A000000000000000000000000000000000000000000000000000000000 DUP2 MSTORE PUSH1 0x4 ADD PUSH2 0x4A2 SWAP1 PUSH2 0x18DC JUMP JUMPDEST PUSH1 0x40 MLOAD DUP1 SWAP2 SUB SWAP1 REVERT JUMPDEST PUSH2 0x4BF PUSH8 0x966248A065E3CEF PUSH1 0xC0 SHL PUSH2 0x132A JUMP JUMPDEST PUSH2 0x4D3 PUSH8 0xBBCFFBB45C8400F4 PUSH1 0xC0 SHL PUSH2 0x132A JUMP JUMPDEST PUSH2 0x4E7 PUSH8 0x19B0206FE4EDE283 PUSH1 0xC0 SHL PUSH2 0x132A JUMP JUMPDEST PUSH2 0x4FB PUSH8 0x2CA04CFA61698EA8 PUSH1 0xC0 SHL PUSH2 0x132A JUMP JUMPDEST PUSH2 0x503 PUSH2 0xCDB JUMP JUMPDEST DUP2 LT ISZERO PUSH2 0x545 JUMPI PUSH1 0x40 MLOAD PUSH32 0x8C379A000000000000000000000000000000000000000000000000000000000 DUP2 MSTORE PUSH1 0x4 ADD PUSH2 0x53C SWAP1 PUSH2 0x18FC JUMP JUMPDEST PUSH1 0x40 MLOAD DUP1 SWAP2 SUB SWAP1 REVERT JUMPDEST PUSH2 0x559 PUSH8 0x158102165DAE4DFC PUSH1 0xC0 SHL PUSH2 0x132A JUMP JUMPDEST PUSH2 0x56D PUSH8 0xB2925CE5A3BA5329 PUSH1 0xC0 SHL PUSH2 0x132A JUMP JUMPDEST PUSH2 0x581 PUSH8 0xCEFED260C8DF12A1 PUSH1 0xC0 SHL PUSH2 0x132A JUMP JUMPDEST PUSH2 0x595 PUSH8 0x75EA169C4EDB784F PUSH1 0xC0 SHL PUSH2 0x132A JUMP JUMPDEST PUSH2 0x59D PUSH2 0xC08 JUMP JUMPDEST PUSH20 0xFFFFFFFFFFFFFFFFFFFFFFFFFFFFFFFFFFFFFFFF AND CALLER PUSH20 0xFFFFFFFFFFFFFFFFFFFFFFFFFFFFFFFFFFFFFFFF AND EQ ISZERO PUSH2 0x60B JUMPI PUSH1 0x40 MLOAD PUSH32 0x8C379A000000000000000000000000000000000000000000000000000000000 DUP2 MSTORE PUSH1 0x4 ADD PUSH2 0x602 SWAP1 PUSH2 0x17FC JUMP JUMPDEST PUSH1 0x40 MLOAD DUP1 SWAP2 SUB SWAP1 REVERT JUMPDEST PUSH2 0x61F PUSH8 0x3F3FCEEBA4681913 PUSH1 0xC0 SHL PUSH2 0x132A JUMP JUMPDEST PUSH2 0x633 PUSH8 0x650658D5CD84656 PUSH1 0xC0 SHL PUSH2 0x132A JUMP JUMPDEST PUSH2 0x647 PUSH8 0xEAC10FCF13C7EBA3 PUSH1 0xC0 SHL PUSH2 0x132A JUMP JUMPDEST PUSH1 0x0 PUSH1 0x2 PUSH1 0x0 SWAP1 SLOAD SWAP1 PUSH2 0x100 EXP SWAP1 DIV PUSH20 0xFFFFFFFFFFFFFFFFFFFFFFFFFFFFFFFFFFFFFFFF AND PUSH20 0xFFFFFFFFFFFFFFFFFFFFFFFFFFFFFFFFFFFFFFFF AND PUSH4 0xDD62ED3E CALLER ADDRESS PUSH1 0x40 MLOAD DUP4 PUSH4 0xFFFFFFFF AND PUSH1 0xE0 SHL DUP2 MSTORE PUSH1 0x4 ADD PUSH2 0x6A6 SWAP3 SWAP2 SWAP1 PUSH2 0x1722 JUMP JUMPDEST PUSH1 0x20 PUSH1 0x40 MLOAD DUP1 DUP4 SUB DUP2 DUP7 DUP1 EXTCODESIZE ISZERO DUP1 ISZERO PUSH2 0x6BE JUMPI PUSH1 0x0 DUP1 REVERT JUMPDEST POP GAS STATICCALL ISZERO DUP1 ISZERO PUSH2 0x6D2 JUMPI RETURNDATASIZE PUSH1 0x0 DUP1 RETURNDATACOPY RETURNDATASIZE PUSH1 0x0 REVERT JUMPDEST POP POP POP POP PUSH1 0x40 MLOAD RETURNDATASIZE PUSH1 0x1F NOT PUSH1 0x1F DUP3 ADD AND DUP3 ADD DUP1 PUSH1 0x40 MSTORE POP DUP2 ADD SWAP1 PUSH2 0x6F6 SWAP2 SWAP1 PUSH2 0x1558 JUMP JUMPDEST SWAP1 POP PUSH2 0x70C PUSH8 0x32C2C8142C3ECB51 PUSH1 0xC0 SHL PUSH2 0x132A JUMP JUMPDEST PUSH2 0x720 PUSH8 0x9F3AAA4BAAD7777C PUSH1 0xC0 SHL PUSH2 0x132A JUMP JUMPDEST PUSH2 0x734 PUSH8 0x39D01315B42447C5 PUSH1 0xC0 SHL PUSH2 0x132A JUMP JUMPDEST DUP2 DUP2 LT ISZERO PUSH2 0x777 JUMPI PUSH1 0x40 MLOAD PUSH32 0x8C379A000000000000000000000000000000000000000000000000000000000 DUP2 MSTORE PUSH1 0x4 ADD PUSH2 0x76E SWAP1 PUSH2 0x187C JUMP JUMPDEST PUSH1 0x40 MLOAD DUP1 SWAP2 SUB SWAP1 REVERT JUMPDEST PUSH2 0x78B PUSH8 0xF8CD127CD453C52C PUSH1 0xC0 SHL PUSH2 0x132A JUMP JUMPDEST PUSH2 0x79F PUSH8 0x520FA0CE1927E850 PUSH1 0xC0 SHL PUSH2 0x132A JUMP JUMPDEST PUSH2 0x7B3 PUSH8 0x89C6502E74BAFC80 PUSH1 0xC0 SHL PUSH2 0x132A JUMP JUMPDEST PUSH1 0x0 PUSH20 0xFFFFFFFFFFFFFFFFFFFFFFFFFFFFFFFFFFFFFFFF AND PUSH1 0xC PUSH1 0x0 SWAP1 SLOAD SWAP1 PUSH2 0x100 EXP SWAP1 DIV PUSH20 0xFFFFFFFFFFFFFFFFFFFFFFFFFFFFFFFFFFFFFFFF AND PUSH20 0xFFFFFFFFFFFFFFFFFFFFFFFFFFFFFFFFFFFFFFFF AND EQ PUSH2 0x9B8 JUMPI PUSH2 0x81D PUSH8 0x56D3572F0FC87687 PUSH1 0xC0 SHL PUSH2 0x132A JUMP JUMPDEST PUSH2 0x831 PUSH8 0x2285FA93D37A555 PUSH1 0xC0 SHL PUSH2 0x132A JUMP JUMPDEST PUSH2 0x845 PUSH8 0x903772EE24F92A19 PUSH1 0xC0 SHL PUSH2 0x132A JUMP JUMPDEST PUSH1 0x2 PUSH1 0x0 SWAP1 SLOAD SWAP1 PUSH2 0x100 EXP SWAP1 DIV PUSH20 0xFFFFFFFFFFFFFFFFFFFFFFFFFFFFFFFFFFFFFFFF AND PUSH20 0xFFFFFFFFFFFFFFFFFFFFFFFFFFFFFFFFFFFFFFFF AND PUSH4 0xA9059CBB PUSH1 0xC PUSH1 0x0 SWAP1 SLOAD SWAP1 PUSH2 0x100 EXP SWAP1 DIV PUSH20 0xFFFFFFFFFFFFFFFFFFFFFFFFFFFFFFFFFFFFFFFF AND PUSH1 0x8 SLOAD PUSH1 0x40 MLOAD DUP4 PUSH4 0xFFFFFFFF AND PUSH1 0xE0 SHL DUP2 MSTORE PUSH1 0x4 ADD PUSH2 0x8C6 SWAP3 SWAP2 SWAP1 PUSH2 0x1782 JUMP JUMPDEST PUSH1 0x20 PUSH1 0x40 MLOAD DUP1 DUP4 SUB DUP2 PUSH1 0x0 DUP8 DUP1 EXTCODESIZE ISZERO DUP1 ISZERO PUSH2 0x8E0 JUMPI PUSH1 0x0 DUP1 REVERT JUMPDEST POP GAS CALL ISZERO DUP1 ISZERO PUSH2 0x8F4 JUMPI RETURNDATASIZE PUSH1 0x0 DUP1 RETURNDATACOPY RETURNDATASIZE PUSH1 0x0 REVERT JUMPDEST POP POP POP POP PUSH1 0x40 MLOAD RETURNDATASIZE PUSH1 0x1F NOT PUSH1 0x1F DUP3 ADD AND DUP3 ADD DUP1 PUSH1 0x40 MSTORE POP DUP2 ADD SWAP1 PUSH2 0x918 SWAP2 SWAP1 PUSH2 0x1506 JUMP JUMPDEST POP PUSH2 0x92D PUSH8 0x225A409C3E2C551B PUSH1 0xC0 SHL PUSH2 0x132A JUMP JUMPDEST PUSH2 0x941 PUSH8 0x8B84CB28B3BEA96C PUSH1 0xC0 SHL PUSH2 0x132A JUMP JUMPDEST PUSH1 0xC PUSH1 0x0 SWAP1 SLOAD SWAP1 PUSH2 0x100 EXP SWAP1 DIV PUSH20 0xFFFFFFFFFFFFFFFFFFFFFFFFFFFFFFFFFFFFFFFF AND PUSH20 0xFFFFFFFFFFFFFFFFFFFFFFFFFFFFFFFFFFFFFFFF AND PUSH32 0x8377883650D2137D6E6D67BCF2DBB9B1DAB287D68240A17FF910B9FB7A0AD5FF PUSH1 0x8 SLOAD PUSH1 0x40 MLOAD PUSH2 0x9AB SWAP2 SWAP1 PUSH2 0x191C JUMP JUMPDEST PUSH1 0x40 MLOAD DUP1 SWAP2 SUB SWAP1 LOG2 PUSH2 0x9CD JUMP JUMPDEST PUSH2 0x9CC PUSH8 0x3BDD45A88DD9DFA6 PUSH1 0xC0 SHL PUSH2 0x132A JUMP JUMPDEST JUMPDEST PUSH2 0x9E1 PUSH8 0x346F514BA5C97192 PUSH1 0xC0 SHL PUSH2 0x132A JUMP JUMPDEST PUSH2 0x9F5 PUSH8 0xE5B02F628D4A3AE9 PUSH1 0xC0 SHL PUSH2 0x132A JUMP JUMPDEST PUSH1 0x2 PUSH1 0x0 SWAP1 SLOAD SWAP1 PUSH2 0x100 EXP SWAP1 DIV PUSH20 0xFFFFFFFFFFFFFFFFFFFFFFFFFFFFFFFFFFFFFFFF AND PUSH20 0xFFFFFFFFFFFFFFFFFFFFFFFFFFFFFFFFFFFFFFFF AND PUSH4 0x23B872DD CALLER ADDRESS DUP6 PUSH1 0x40 MLOAD DUP5 PUSH4 0xFFFFFFFF AND PUSH1 0xE0 SHL DUP2 MSTORE PUSH1 0x4 ADD PUSH2 0xA54 SWAP4 SWAP3 SWAP2 SWAP1 PUSH2 0x174B JUMP JUMPDEST PUSH1 0x20 PUSH1 0x40 MLOAD DUP1 DUP4 SUB DUP2 PUSH1 0x0 DUP8 DUP1 EXTCODESIZE ISZERO DUP1 ISZERO PUSH2 0xA6E JUMPI PUSH1 0x0 DUP1 REVERT JUMPDEST POP GAS CALL ISZERO DUP1 ISZERO PUSH2 0xA82 JUMPI RETURNDATASIZE PUSH1 0x0 DUP1 RETURNDATACOPY RETURNDATASIZE PUSH1 0x0 REVERT JUMPDEST POP POP POP POP PUSH1 0x40 MLOAD RETURNDATASIZE PUSH1 0x1F NOT PUSH1 0x1F DUP3 ADD AND DUP3 ADD DUP1 PUSH1 0x40 MSTORE POP DUP2 ADD SWAP1 PUSH2 0xAA6 SWAP2 SWAP1 PUSH2 0x1506 JUMP JUMPDEST POP PUSH2 0xABB PUSH8 0xF5D5923BE2BBE148 PUSH1 0xC0 SHL PUSH2 0x132A JUMP JUMPDEST DUP2 PUSH1 0x8 DUP2 SWAP1 SSTORE POP PUSH2 0xAD6 PUSH8 0x3599A4576A26D1F9 PUSH1 0xC0 SHL PUSH2 0x132A JUMP JUMPDEST CALLER PUSH1 0xC PUSH1 0x0 PUSH2 0x100 EXP DUP2 SLOAD DUP2 PUSH20 0xFFFFFFFFFFFFFFFFFFFFFFFFFFFFFFFFFFFFFFFF MUL NOT AND SWAP1 DUP4 PUSH20 0xFFFFFFFFFFFFFFFFFFFFFFFFFFFFFFFFFFFFFFFF AND MUL OR SWAP1 SSTORE POP PUSH2 0xB2B PUSH8 0x1E89722216C0F522 PUSH1 0xC0 SHL PUSH2 0x132A JUMP JUMPDEST PUSH2 0xB3F PUSH8 0x5EFE6924CC617E2F PUSH1 0xC0 SHL PUSH2 0x132A JUMP JUMPDEST CALLER PUSH20 0xFFFFFFFFFFFFFFFFFFFFFFFFFFFFFFFFFFFFFFFF AND PUSH32 0xDD0B6C6A77960E2066C96171B4D7AC9E8B4C184011F38544AFA36A5BB63EC59F DUP4 PUSH1 0x40 MLOAD PUSH2 0xB85 SWAP2 SWAP1 PUSH2 0x191C JUMP JUMPDEST PUSH1 0x40 MLOAD DUP1 SWAP2 SUB SWAP1 LOG2 POP POP JUMP JUMPDEST PUSH1 0xA SLOAD DUP2 JUMP JUMPDEST PUSH1 0x0 PUSH2 0xBAD PUSH8 0x97B13DB07B358EA4 PUSH1 0xC0 SHL PUSH2 0x132A JUMP JUMPDEST PUSH2 0xBC1 PUSH8 0x471B7E461ADB4BCC PUSH1 0xC0 SHL PUSH2 0x132A JUMP JUMPDEST PUSH2 0xBD5 PUSH8 0xF0F33A09C20C9CC1 PUSH1 0xC0 SHL PUSH2 0x132A JUMP JUMPDEST NUMBER SWAP1 POP SWAP1 JUMP JUMPDEST PUSH2 0xBE3 PUSH2 0x132D JUMP JUMPDEST PUSH2 0xBED PUSH1 0x0 PUSH2 0x13AB JUMP JUMPDEST JUMP JUMPDEST PUSH1 0x3 SLOAD DUP2 JUMP JUMPDEST PUSH1 0xC PUSH1 0x14 SWAP1 SLOAD SWAP1 PUSH2 0x100 EXP SWAP1 DIV PUSH1 0xFF AND DUP2 JUMP JUMPDEST PUSH1 0x0 DUP1 PUSH1 0x0 SWAP1 SLOAD SWAP1 PUSH2 0x100 EXP SWAP1 DIV PUSH20 0xFFFFFFFFFFFFFFFFFFFFFFFFFFFFFFFFFFFFFFFF AND SWAP1 POP SWAP1 JUMP JUMPDEST PUSH1 0xC PUSH1 0x0 SWAP1 SLOAD SWAP1 PUSH2 0x100 EXP SWAP1 DIV PUSH20 0xFFFFFFFFFFFFFFFFFFFFFFFFFFFFFFFFFFFFFFFF AND DUP2 JUMP JUMPDEST PUSH1 0xB PUSH1 0x0 SWAP1 SLOAD SWAP1 PUSH2 0x100 EXP SWAP1 DIV PUSH20 0xFFFFFFFFFFFFFFFFFFFFFFFFFFFFFFFFFFFFFFFF AND DUP2 JUMP JUMPDEST PUSH1 0x1 PUSH1 0x0 SWAP1 SLOAD SWAP1 PUSH2 0x100 EXP SWAP1 DIV PUSH20 0xFFFFFFFFFFFFFFFFFFFFFFFFFFFFFFFFFFFFFFFF AND DUP2 JUMP JUMPDEST PUSH1 0x7 SLOAD DUP2 JUMP JUMPDEST PUSH1 0x8 SLOAD DUP2 JUMP JUMPDEST PUSH1 0x4 SLOAD DUP2 JUMP JUMPDEST PUSH1 0x2 PUSH1 0x0 SWAP1 SLOAD SWAP1 PUSH2 0x100 EXP SWAP1 DIV PUSH20 0xFFFFFFFFFFFFFFFFFFFFFFFFFFFFFFFFFFFFFFFF AND DUP2 JUMP JUMPDEST PUSH1 0x0 PUSH2 0xCF1 PUSH8 0x62A358F3226A737D PUSH1 0xC0 SHL PUSH2 0x132A JUMP JUMPDEST PUSH2 0xD05 PUSH8 0xF5E06F3BA07A2BF7 PUSH1 0xC0 SHL PUSH2 0x132A JUMP JUMPDEST PUSH2 0xD19 PUSH8 0x169D3ABB076D11E4 PUSH1 0xC0 SHL PUSH2 0x132A JUMP JUMPDEST PUSH1 0xA SLOAD NUMBER GT ISZERO PUSH2 0xE05 JUMPI PUSH2 0xD37 PUSH8 0x5403D111E7223213 PUSH1 0xC0 SHL PUSH2 0x132A JUMP JUMPDEST PUSH2 0xD4B PUSH8 0x16BF11A214C7B2DC PUSH1 0xC0 SHL PUSH2 0x132A JUMP JUMPDEST PUSH2 0xD5F PUSH8 0x73BD3DCD03041D4C PUSH1 0xC0 SHL PUSH2 0x132A JUMP JUMPDEST PUSH1 0x0 PUSH1 0xA SLOAD NUMBER PUSH2 0xD6F SWAP2 SWAP1 PUSH2 0x19F8 JUMP JUMPDEST PUSH1 0x7 SLOAD PUSH2 0xD7C SWAP2 SWAP1 PUSH2 0x199E JUMP JUMPDEST SWAP1 POP PUSH2 0xD92 PUSH8 0x746284807FD293A7 PUSH1 0xC0 SHL PUSH2 0x132A JUMP JUMPDEST PUSH2 0xDA6 PUSH8 0xFC51443447E1E040 PUSH1 0xC0 SHL PUSH2 0x132A JUMP JUMPDEST DUP1 PUSH1 0x9 SLOAD GT DUP1 ISZERO PUSH2 0xDC7 JUMPI POP PUSH2 0xDC6 PUSH8 0x3906215B6193D73B PUSH1 0xC0 SHL PUSH2 0x146F JUMP JUMPDEST JUMPDEST DUP1 PUSH2 0xDE2 JUMPI POP PUSH2 0xDE1 PUSH8 0x342505E8E42FC8CE PUSH1 0xC0 SHL PUSH2 0x147A JUMP JUMPDEST JUMPDEST PUSH2 0xDEE JUMPI PUSH1 0x4 SLOAD PUSH2 0xDFD JUMP JUMPDEST DUP1 PUSH1 0x9 SLOAD PUSH2 0xDFC SWAP2 SWAP1 PUSH2 0x19F8 JUMP JUMPDEST JUMPDEST SWAP2 POP POP PUSH2 0xE47 JUMP JUMPDEST PUSH2 0xE19 PUSH8 0xBA70F40D4B842E0 PUSH1 0xC0 SHL PUSH2 0x132A JUMP JUMPDEST PUSH2 0xE2D PUSH8 0x68F24659B045B956 PUSH1 0xC0 SHL PUSH2 0x132A JUMP JUMPDEST PUSH2 0xE41 PUSH8 0x697F2E7CF6D8EB0A PUSH1 0xC0 SHL PUSH2 0x132A JUMP JUMPDEST PUSH1 0x9 SLOAD SWAP1 POP JUMPDEST SWAP1 JUMP JUMPDEST PUSH1 0x9 SLOAD DUP2 JUMP JUMPDEST PUSH2 0xE58 PUSH2 0x132D JUMP JUMPDEST PUSH1 0x0 PUSH20 0xFFFFFFFFFFFFFFFFFFFFFFFFFFFFFFFFFFFFFFFF AND DUP2 PUSH20 0xFFFFFFFFFFFFFFFFFFFFFFFFFFFFFFFFFFFFFFFF AND EQ ISZERO PUSH2 0xEC8 JUMPI PUSH1 0x40 MLOAD PUSH32 0x8C379A000000000000000000000000000000000000000000000000000000000 DUP2 MSTORE PUSH1 0x4 ADD PUSH2 0xEBF SWAP1 PUSH2 0x181C JUMP JUMPDEST PUSH1 0x40 MLOAD DUP1 SWAP2 SUB SWAP1 REVERT JUMPDEST PUSH2 0xED1 DUP2 PUSH2 0x13AB JUMP JUMPDEST POP JUMP JUMPDEST PUSH2 0xEE8 PUSH8 0x9969E8BC74397DED PUSH1 0xC0 SHL PUSH2 0x132A JUMP JUMPDEST PUSH2 0xEF0 PUSH2 0x132D JUMP JUMPDEST PUSH2 0xF04 PUSH8 0xE9D39562EDD76144 PUSH1 0xC0 SHL PUSH2 0x132A JUMP JUMPDEST PUSH2 0xF18 PUSH8 0xF34FE1EC807861E7 PUSH1 0xC0 SHL PUSH2 0x132A JUMP JUMPDEST PUSH2 0xF2C PUSH8 0x1756AB3E8FF0BA40 PUSH1 0xC0 SHL PUSH2 0x132A JUMP JUMPDEST PUSH2 0xF40 PUSH8 0x528A0EF4A5AFAC31 PUSH1 0xC0 SHL PUSH2 0x132A JUMP JUMPDEST PUSH2 0xF54 PUSH8 0xDA2F38867843E67C PUSH1 0xC0 SHL PUSH2 0x132A JUMP JUMPDEST PUSH1 0xC PUSH1 0x14 SWAP1 SLOAD SWAP1 PUSH2 0x100 EXP SWAP1 DIV PUSH1 0xFF AND ISZERO PUSH2 0xFA4 JUMPI PUSH1 0x40 MLOAD PUSH32 0x8C379A000000000000000000000000000000000000000000000000000000000 DUP2 MSTORE PUSH1 0x4 ADD PUSH2 0xF9B SWAP1 PUSH2 0x183C JUMP JUMPDEST PUSH1 0x40 MLOAD DUP1 SWAP2 SUB SWAP1 REVERT JUMPDEST PUSH2 0xFB8 PUSH8 0xF3383D75C2F90826 PUSH1 0xC0 SHL PUSH2 0x132A JUMP JUMPDEST PUSH2 0xFCC PUSH8 0xB8845E6F2135DBAC PUSH1 0xC0 SHL PUSH2 0x132A JUMP JUMPDEST PUSH2 0xFE0 PUSH8 0xCE3438B41861E20E PUSH1 0xC0 SHL PUSH2 0x132A JUMP JUMPDEST PUSH2 0xFF4 PUSH8 0xE1F5757095B7861A PUSH1 0xC0 SHL PUSH2 0x132A JUMP JUMPDEST PUSH1 0x0 PUSH20 0xFFFFFFFFFFFFFFFFFFFFFFFFFFFFFFFFFFFFFFFF AND PUSH1 0xC PUSH1 0x0 SWAP1 SLOAD SWAP1 PUSH2 0x100 EXP SWAP1 DIV PUSH20 0xFFFFFFFFFFFFFFFFFFFFFFFFFFFFFFFFFFFFFFFF AND PUSH20 0xFFFFFFFFFFFFFFFFFFFFFFFFFFFFFFFFFFFFFFFF AND EQ ISZERO PUSH2 0x1086 JUMPI PUSH1 0x40 MLOAD PUSH32 0x8C379A000000000000000000000000000000000000000000000000000000000 DUP2 MSTORE PUSH1 0x4 ADD PUSH2 0x107D SWAP1 PUSH2 0x189C JUMP JUMPDEST PUSH1 0x40 MLOAD DUP1 SWAP2 SUB SWAP1 REVERT JUMPDEST PUSH2 0x109A PUSH8 0x3AA486797CEAAACC PUSH1 0xC0 SHL PUSH2 0x132A JUMP JUMPDEST PUSH2 0x10AE PUSH8 0xB68CB3E64DB7E6C4 PUSH1 0xC0 SHL PUSH2 0x132A JUMP JUMPDEST PUSH2 0x10C2 PUSH8 0xF31B5C48FD4F8ACA PUSH1 0xC0 SHL PUSH2 0x132A JUMP JUMPDEST PUSH1 0x2 PUSH1 0x0 SWAP1 SLOAD SWAP1 PUSH2 0x100 EXP SWAP1 DIV PUSH20 0xFFFFFFFFFFFFFFFFFFFFFFFFFFFFFFFFFFFFFFFF AND PUSH20 0xFFFFFFFFFFFFFFFFFFFFFFFFFFFFFFFFFFFFFFFF AND PUSH4 0xA9059CBB PUSH2 0x1108 PUSH2 0xC08 JUMP JUMPDEST PUSH1 0x8 SLOAD PUSH1 0x40 MLOAD DUP4 PUSH4 0xFFFFFFFF AND PUSH1 0xE0 SHL DUP2 MSTORE PUSH1 0x4 ADD PUSH2 0x1128 SWAP3 SWAP2 SWAP1 PUSH2 0x1782 JUMP JUMPDEST PUSH1 0x20 PUSH1 0x40 MLOAD DUP1 DUP4 SUB DUP2 PUSH1 0x0 DUP8 DUP1 EXTCODESIZE ISZERO DUP1 ISZERO PUSH2 0x1142 JUMPI PUSH1 0x0 DUP1 REVERT JUMPDEST POP GAS CALL ISZERO DUP1 ISZERO PUSH2 0x1156 JUMPI RETURNDATASIZE PUSH1 0x0 DUP1 RETURNDATACOPY RETURNDATASIZE PUSH1 0x0 REVERT JUMPDEST POP POP POP POP PUSH1 0x40 MLOAD RETURNDATASIZE PUSH1 0x1F NOT PUSH1 0x1F DUP3 ADD AND DUP3 ADD DUP1 PUSH1 0x40 MSTORE POP DUP2 ADD SWAP1 PUSH2 0x117A SWAP2 SWAP1 PUSH2 0x1506 JUMP JUMPDEST POP PUSH2 0x118F PUSH8 0xD028B525D3DD2868 PUSH1 0xC0 SHL PUSH2 0x132A JUMP JUMPDEST PUSH2 0x11A3 PUSH8 0x95D04854994ECFB7 PUSH1 0xC0 SHL PUSH2 0x132A JUMP JUMPDEST PUSH1 0x1 PUSH1 0x0 SWAP1 SLOAD SWAP1 PUSH2 0x100 EXP SWAP1 DIV PUSH20 0xFFFFFFFFFFFFFFFFFFFFFFFFFFFFFFFFFFFFFFFF AND PUSH20 0xFFFFFFFFFFFFFFFFFFFFFFFFFFFFFFFFFFFFFFFF AND PUSH4 0x23B872DD PUSH2 0x11E9 PUSH2 0xC08 JUMP JUMPDEST PUSH1 0xC PUSH1 0x0 SWAP1 SLOAD SWAP1 PUSH2 0x100 EXP SWAP1 DIV PUSH20 0xFFFFFFFFFFFFFFFFFFFFFFFFFFFFFFFFFFFFFFFF AND PUSH1 0x3 SLOAD PUSH1 0x40 MLOAD DUP5 PUSH4 0xFFFFFFFF AND PUSH1 0xE0 SHL DUP2 MSTORE PUSH1 0x4 ADD PUSH2 0x122D SWAP4 SWAP3 SWAP2 SWAP1 PUSH2 0x174B JUMP JUMPDEST PUSH1 0x0 PUSH1 0x40 MLOAD DUP1 DUP4 SUB DUP2 PUSH1 0x0 DUP8 DUP1 EXTCODESIZE ISZERO DUP1 ISZERO PUSH2 0x1247 JUMPI PUSH1 0x0 DUP1 REVERT JUMPDEST POP GAS CALL ISZERO DUP1 ISZERO PUSH2 0x125B JUMPI RETURNDATASIZE PUSH1 0x0 DUP1 RETURNDATACOPY RETURNDATASIZE PUSH1 0x0 REVERT JUMPDEST POP POP POP POP PUSH2 0x1273 PUSH8 0xDDC9E66783559F6C PUSH1 0xC0 SHL PUSH2 0x132A JUMP JUMPDEST PUSH1 0x1 PUSH1 0xC PUSH1 0x14 PUSH2 0x100 EXP DUP2 SLOAD DUP2 PUSH1 0xFF MUL NOT AND SWAP1 DUP4 ISZERO ISZERO MUL OR SWAP1 SSTORE POP PUSH2 0x12A2 PUSH8 0xC8D7DB24861C8291 PUSH1 0xC0 SHL PUSH2 0x132A JUMP JUMPDEST PUSH2 0x12B6 PUSH8 0xE5100E172DDF1E94 PUSH1 0xC0 SHL PUSH2 0x132A JUMP JUMPDEST PUSH1 0xC PUSH1 0x0 SWAP1 SLOAD SWAP1 PUSH2 0x100 EXP SWAP1 DIV PUSH20 0xFFFFFFFFFFFFFFFFFFFFFFFFFFFFFFFFFFFFFFFF AND PUSH20 0xFFFFFFFFFFFFFFFFFFFFFFFFFFFFFFFFFFFFFFFF AND PUSH32 0xDAEC4582D5D9595688C8C98545FDD1C696D41C6AEAEB636737E84ED2F5C00EDA PUSH1 0x8 SLOAD PUSH1 0x40 MLOAD PUSH2 0x1320 SWAP2 SWAP1 PUSH2 0x191C JUMP JUMPDEST PUSH1 0x40 MLOAD DUP1 SWAP2 SUB SWAP1 LOG2 JUMP JUMPDEST POP JUMP JUMPDEST PUSH2 0x1335 PUSH2 0x1481 JUMP JUMPDEST PUSH20 0xFFFFFFFFFFFFFFFFFFFFFFFFFFFFFFFFFFFFFFFF AND PUSH2 0x1353 PUSH2 0xC08 JUMP JUMPDEST PUSH20 0xFFFFFFFFFFFFFFFFFFFFFFFFFFFFFFFFFFFFFFFF AND EQ PUSH2 0x13A9 JUMPI PUSH1 0x40 MLOAD PUSH32 0x8C379A000000000000000000000000000000000000000000000000000000000 DUP2 MSTORE PUSH1 0x4 ADD PUSH2 0x13A0 SWAP1 PUSH2 0x18BC JUMP JUMPDEST PUSH1 0x40 MLOAD DUP1 SWAP2 SUB SWAP1 REVERT JUMPDEST JUMP JUMPDEST PUSH1 0x0 DUP1 PUSH1 0x0 SWAP1 SLOAD SWAP1 PUSH2 0x100 EXP SWAP1 DIV PUSH20 0xFFFFFFFFFFFFFFFFFFFFFFFFFFFFFFFFFFFFFFFF AND SWAP1 POP DUP2 PUSH1 0x0 DUP1 PUSH2 0x100 EXP DUP2 SLOAD DUP2 PUSH20 0xFFFFFFFFFFFFFFFFFFFFFFFFFFFFFFFFFFFFFFFF MUL NOT AND SWAP1 DUP4 PUSH20 0xFFFFFFFFFFFFFFFFFFFFFFFFFFFFFFFFFFFFFFFF AND MUL OR SWAP1 SSTORE POP DUP2 PUSH20 0xFFFFFFFFFFFFFFFFFFFFFFFFFFFFFFFFFFFFFFFF AND DUP2 PUSH20 0xFFFFFFFFFFFFFFFFFFFFFFFFFFFFFFFFFFFFFFFF AND PUSH32 0x8BE0079C531659141344CD1FD0A4F28419497F9722A3DAAFE3B4186F6B6457E0 PUSH1 0x40 MLOAD PUSH1 0x40 MLOAD DUP1 SWAP2 SUB SWAP1 LOG3 POP POP JUMP JUMPDEST PUSH1 0x0 PUSH1 0x1 SWAP1 POP SWAP2 SWAP1 POP JUMP JUMPDEST PUSH1 0x0 SWAP2 SWAP1 POP JUMP JUMPDEST PUSH1 0x0 CALLER SWAP1 POP SWAP1 JUMP JUMPDEST PUSH1 0x0 DUP2 CALLDATALOAD SWAP1 POP PUSH2 0x1498 DUP2 PUSH2 0x1CA8 JUMP JUMPDEST SWAP3 SWAP2 POP POP JUMP JUMPDEST PUSH1 0x0 DUP2 MLOAD SWAP1 POP PUSH2 0x14AD DUP2 PUSH2 0x1CBF JUMP JUMPDEST SWAP3 SWAP2 POP POP JUMP JUMPDEST PUSH1 0x0 DUP2 CALLDATALOAD SWAP1 POP PUSH2 0x14C2 DUP2 PUSH2 0x1CD6 JUMP JUMPDEST SWAP3 SWAP2 POP POP JUMP JUMPDEST PUSH1 0x0 DUP2 MLOAD SWAP1 POP PUSH2 0x14D7 DUP2 PUSH2 0x1CD6 JUMP JUMPDEST SWAP3 SWAP2 POP POP JUMP JUMPDEST PUSH1 0x0 PUSH1 0x20 DUP3 DUP5 SUB SLT ISZERO PUSH2 0x14EF JUMPI PUSH1 0x0 DUP1 REVERT JUMPDEST PUSH1 0x0 PUSH2 0x14FD DUP5 DUP3 DUP6 ADD PUSH2 0x1489 JUMP JUMPDEST SWAP2 POP POP SWAP3 SWAP2 POP POP JUMP JUMPDEST PUSH1 0x0 PUSH1 0x20 DUP3 DUP5 SUB SLT ISZERO PUSH2 0x1518 JUMPI PUSH1 0x0 DUP1 REVERT JUMPDEST PUSH1 0x0 PUSH2 0x1526 DUP5 DUP3 DUP6 ADD PUSH2 0x149E JUMP JUMPDEST SWAP2 POP POP SWAP3 SWAP2 POP POP JUMP JUMPDEST PUSH1 0x0 PUSH1 0x20 DUP3 DUP5 SUB SLT ISZERO PUSH2 0x1541 JUMPI PUSH1 0x0 DUP1 REVERT JUMPDEST PUSH1 0x0 PUSH2 0x154F DUP5 DUP3 DUP6 ADD PUSH2 0x14B3 JUMP JUMPDEST SWAP2 POP POP SWAP3 SWAP2 POP POP JUMP JUMPDEST PUSH1 0x0 PUSH1 0x20 DUP3 DUP5 SUB SLT ISZERO PUSH2 0x156A JUMPI PUSH1 0x0 DUP1 REVERT JUMPDEST PUSH1 0x0 PUSH2 0x1578 DUP5 DUP3 DUP6 ADD PUSH2 0x14C8 JUMP JUMPDEST SWAP2 POP POP SWAP3 SWAP2 POP POP JUMP JUMPDEST PUSH2 0x158A DUP2 PUSH2 0x1A2C JUMP JUMPDEST DUP3 MSTORE POP POP JUMP JUMPDEST PUSH2 0x1599 DUP2 PUSH2 0x1A3E JUMP JUMPDEST DUP3 MSTORE POP POP JUMP JUMPDEST PUSH2 0x15A8 DUP2 PUSH2 0x1A74 JUMP JUMPDEST DUP3 MSTORE POP POP JUMP JUMPDEST PUSH2 0x15B7 DUP2 PUSH2 0x1A98 JUMP JUMPDEST DUP3 MSTORE POP POP JUMP JUMPDEST PUSH1 0x0 PUSH2 0x15CA PUSH1 0x18 DUP4 PUSH2 0x1937 JUMP JUMPDEST SWAP2 POP PUSH2 0x15D5 DUP3 PUSH2 0x1AEB JUMP JUMPDEST PUSH1 0x20 DUP3 ADD SWAP1 POP SWAP2 SWAP1 POP JUMP JUMPDEST PUSH1 0x0 PUSH2 0x15ED PUSH1 0x26 DUP4 PUSH2 0x1937 JUMP JUMPDEST SWAP2 POP PUSH2 0x15F8 DUP3 PUSH2 0x1B14 JUMP JUMPDEST PUSH1 0x40 DUP3 ADD SWAP1 POP SWAP2 SWAP1 POP JUMP JUMPDEST PUSH1 0x0 PUSH2 0x1610 PUSH1 0x19 DUP4 PUSH2 0x1937 JUMP JUMPDEST SWAP2 POP PUSH2 0x161B DUP3 PUSH2 0x1B63 JUMP JUMPDEST PUSH1 0x20 DUP3 ADD SWAP1 POP SWAP2 SWAP1 POP JUMP JUMPDEST PUSH1 0x0 PUSH2 0x1633 PUSH1 0x11 DUP4 PUSH2 0x1937 JUMP JUMPDEST SWAP2 POP PUSH2 0x163E DUP3 PUSH2 0x1B8C JUMP JUMPDEST PUSH1 0x20 DUP3 ADD SWAP1 POP SWAP2 SWAP1 POP JUMP JUMPDEST PUSH1 0x0 PUSH2 0x1656 PUSH1 0x19 DUP4 PUSH2 0x1937 JUMP JUMPDEST SWAP2 POP PUSH2 0x1661 DUP3 PUSH2 0x1BB5 JUMP JUMPDEST PUSH1 0x20 DUP3 ADD SWAP1 POP SWAP2 SWAP1 POP JUMP JUMPDEST PUSH1 0x0 PUSH2 0x1679 PUSH1 0x10 DUP4 PUSH2 0x1937 JUMP JUMPDEST SWAP2 POP PUSH2 0x1684 DUP3 PUSH2 0x1BDE JUMP JUMPDEST PUSH1 0x20 DUP3 ADD SWAP1 POP SWAP2 SWAP1 POP JUMP JUMPDEST PUSH1 0x0 PUSH2 0x169C PUSH1 0x20 DUP4 PUSH2 0x1937 JUMP JUMPDEST SWAP2 POP PUSH2 0x16A7 DUP3 PUSH2 0x1C07 JUMP JUMPDEST PUSH1 0x20 DUP3 ADD SWAP1 POP SWAP2 SWAP1 POP JUMP JUMPDEST PUSH1 0x0 PUSH2 0x16BF PUSH1 0x11 DUP4 PUSH2 0x1937 JUMP JUMPDEST SWAP2 POP PUSH2 0x16CA DUP3 PUSH2 0x1C30 JUMP JUMPDEST PUSH1 0x20 DUP3 ADD SWAP1 POP SWAP2 SWAP1 POP JUMP JUMPDEST PUSH1 0x0 PUSH2 0x16E2 PUSH1 0x23 DUP4 PUSH2 0x1937 JUMP JUMPDEST SWAP2 POP PUSH2 0x16ED DUP3 PUSH2 0x1C59 JUMP JUMPDEST PUSH1 0x40 DUP3 ADD SWAP1 POP SWAP2 SWAP1 POP JUMP JUMPDEST PUSH2 0x1701 DUP2 PUSH2 0x1A6A JUMP JUMPDEST DUP3 MSTORE POP POP JUMP JUMPDEST PUSH1 0x0 PUSH1 0x20 DUP3 ADD SWAP1 POP PUSH2 0x171C PUSH1 0x0 DUP4 ADD DUP5 PUSH2 0x1581 JUMP JUMPDEST SWAP3 SWAP2 POP POP JUMP JUMPDEST PUSH1 0x0 PUSH1 0x40 DUP3 ADD SWAP1 POP PUSH2 0x1737 PUSH1 0x0 DUP4 ADD DUP6 PUSH2 0x1581 JUMP JUMPDEST PUSH2 0x1744 PUSH1 0x20 DUP4 ADD DUP5 PUSH2 0x1581 JUMP JUMPDEST SWAP4 SWAP3 POP POP POP JUMP JUMPDEST PUSH1 0x0 PUSH1 0x60 DUP3 ADD SWAP1 POP PUSH2 0x1760 PUSH1 0x0 DUP4 ADD DUP7 PUSH2 0x1581 JUMP JUMPDEST PUSH2 0x176D PUSH1 0x20 DUP4 ADD DUP6 PUSH2 0x1581 JUMP JUMPDEST PUSH2 0x177A PUSH1 0x40 DUP4 ADD DUP5 PUSH2 0x16F8 JUMP JUMPDEST SWAP5 SWAP4 POP POP POP POP JUMP JUMPDEST PUSH1 0x0 PUSH1 0x40 DUP3 ADD SWAP1 POP PUSH2 0x1797 PUSH1 0x0 DUP4 ADD DUP6 PUSH2 0x1581 JUMP JUMPDEST PUSH2 0x17A4 PUSH1 0x20 DUP4 ADD DUP5 PUSH2 0x16F8 JUMP JUMPDEST SWAP4 SWAP3 POP POP POP JUMP JUMPDEST PUSH1 0x0 PUSH1 0x20 DUP3 ADD SWAP1 POP PUSH2 0x17C0 PUSH1 0x0 DUP4 ADD DUP5 PUSH2 0x1590 JUMP JUMPDEST SWAP3 SWAP2 POP POP JUMP JUMPDEST PUSH1 0x0 PUSH1 0x20 DUP3 ADD SWAP1 POP PUSH2 0x17DB PUSH1 0x0 DUP4 ADD DUP5 PUSH2 0x159F JUMP JUMPDEST SWAP3 SWAP2 POP POP JUMP JUMPDEST PUSH1 0x0 PUSH1 0x20 DUP3 ADD SWAP1 POP PUSH2 0x17F6 PUSH1 0x0 DUP4 ADD DUP5 PUSH2 0x15AE JUMP JUMPDEST SWAP3 SWAP2 POP POP JUMP JUMPDEST PUSH1 0x0 PUSH1 0x20 DUP3 ADD SWAP1 POP DUP2 DUP2 SUB PUSH1 0x0 DUP4 ADD MSTORE PUSH2 0x1815 DUP2 PUSH2 0x15BD JUMP JUMPDEST SWAP1 POP SWAP2 SWAP1 POP JUMP JUMPDEST PUSH1 0x0 PUSH1 0x20 DUP3 ADD SWAP1 POP DUP2 DUP2 SUB PUSH1 0x0 DUP4 ADD MSTORE PUSH2 0x1835 DUP2 PUSH2 0x15E0 JUMP JUMPDEST SWAP1 POP SWAP2 SWAP1 POP JUMP JUMPDEST PUSH1 0x0 PUSH1 0x20 DUP3 ADD SWAP1 POP DUP2 DUP2 SUB PUSH1 0x0 DUP4 ADD MSTORE PUSH2 0x1855 DUP2 PUSH2 0x1603 JUMP JUMPDEST SWAP1 POP SWAP2 SWAP1 POP JUMP JUMPDEST PUSH1 0x0 PUSH1 0x20 DUP3 ADD SWAP1 POP DUP2 DUP2 SUB PUSH1 0x0 DUP4 ADD MSTORE PUSH2 0x1875 DUP2 PUSH2 0x1626 JUMP JUMPDEST SWAP1 POP SWAP2 SWAP1 POP JUMP JUMPDEST PUSH1 0x0 PUSH1 0x20 DUP3 ADD SWAP1 POP DUP2 DUP2 SUB PUSH1 0x0 DUP4 ADD MSTORE PUSH2 0x1895 DUP2 PUSH2 0x1649 JUMP JUMPDEST SWAP1 POP SWAP2 SWAP1 POP JUMP JUMPDEST PUSH1 0x0 PUSH1 0x20 DUP3 ADD SWAP1 POP DUP2 DUP2 SUB PUSH1 0x0 DUP4 ADD MSTORE PUSH2 0x18B5 DUP2 PUSH2 0x166C JUMP JUMPDEST SWAP1 POP SWAP2 SWAP1 POP JUMP JUMPDEST PUSH1 0x0 PUSH1 0x20 DUP3 ADD SWAP1 POP DUP2 DUP2 SUB PUSH1 0x0 DUP4 ADD MSTORE PUSH2 0x18D5 DUP2 PUSH2 0x168F JUMP JUMPDEST SWAP1 POP SWAP2 SWAP1 POP JUMP JUMPDEST PUSH1 0x0 PUSH1 0x20 DUP3 ADD SWAP1 POP DUP2 DUP2 SUB PUSH1 0x0 DUP4 ADD MSTORE PUSH2 0x18F5 DUP2 PUSH2 0x16B2 JUMP JUMPDEST SWAP1 POP SWAP2 SWAP1 POP JUMP JUMPDEST PUSH1 0x0 PUSH1 0x20 DUP3 ADD SWAP1 POP DUP2 DUP2 SUB PUSH1 0x0 DUP4 ADD MSTORE PUSH2 0x1915 DUP2 PUSH2 0x16D5 JUMP JUMPDEST SWAP1 POP SWAP2 SWAP1 POP JUMP JUMPDEST PUSH1 0x0 PUSH1 0x20 DUP3 ADD SWAP1 POP PUSH2 0x1931 PUSH1 0x0 DUP4 ADD DUP5 PUSH2 0x16F8 JUMP JUMPDEST SWAP3 SWAP2 POP POP JUMP JUMPDEST PUSH1 0x0 DUP3 DUP3 MSTORE PUSH1 0x20 DUP3 ADD SWAP1 POP SWAP3 SWAP2 POP POP JUMP JUMPDEST PUSH1 0x0 PUSH2 0x1953 DUP3 PUSH2 0x1A6A JUMP JUMPDEST SWAP2 POP PUSH2 0x195E DUP4 PUSH2 0x1A6A JUMP JUMPDEST SWAP3 POP DUP3 PUSH32 0xFFFFFFFFFFFFFFFFFFFFFFFFFFFFFFFFFFFFFFFFFFFFFFFFFFFFFFFFFFFFFFFF SUB DUP3 GT ISZERO PUSH2 0x1993 JUMPI PUSH2 0x1992 PUSH2 0x1ABC JUMP JUMPDEST JUMPDEST DUP3 DUP3 ADD SWAP1 POP SWAP3 SWAP2 POP POP JUMP JUMPDEST PUSH1 0x0 PUSH2 0x19A9 DUP3 PUSH2 0x1A6A JUMP JUMPDEST SWAP2 POP PUSH2 0x19B4 DUP4 PUSH2 0x1A6A JUMP JUMPDEST SWAP3 POP DUP2 PUSH32 0xFFFFFFFFFFFFFFFFFFFFFFFFFFFFFFFFFFFFFFFFFFFFFFFFFFFFFFFFFFFFFFFF DIV DUP4 GT DUP3 ISZERO ISZERO AND ISZERO PUSH2 0x19ED JUMPI PUSH2 0x19EC PUSH2 0x1ABC JUMP JUMPDEST JUMPDEST DUP3 DUP3 MUL SWAP1 POP SWAP3 SWAP2 POP POP JUMP JUMPDEST PUSH1 0x0 PUSH2 0x1A03 DUP3 PUSH2 0x1A6A JUMP JUMPDEST SWAP2 POP PUSH2 0x1A0E DUP4 PUSH2 0x1A6A JUMP JUMPDEST SWAP3 POP DUP3 DUP3 LT ISZERO PUSH2 0x1A21 JUMPI PUSH2 0x1A20 PUSH2 0x1ABC JUMP JUMPDEST JUMPDEST DUP3 DUP3 SUB SWAP1 POP SWAP3 SWAP2 POP POP JUMP JUMPDEST PUSH1 0x0 PUSH2 0x1A37 DUP3 PUSH2 0x1A4A JUMP JUMPDEST SWAP1 POP SWAP2 SWAP1 POP JUMP JUMPDEST PUSH1 0x0 DUP2 ISZERO ISZERO SWAP1 POP SWAP2 SWAP1 POP JUMP JUMPDEST PUSH1 0x0 PUSH20 0xFFFFFFFFFFFFFFFFFFFFFFFFFFFFFFFFFFFFFFFF DUP3 AND SWAP1 POP SWAP2 SWAP1 POP JUMP JUMPDEST PUSH1 0x0 DUP2 SWAP1 POP SWAP2 SWAP1 POP JUMP JUMPDEST PUSH1 0x0 PUSH2 0x1A7F DUP3 PUSH2 0x1A86 JUMP JUMPDEST SWAP1 POP SWAP2 SWAP1 POP JUMP JUMPDEST PUSH1 0x0 PUSH2 0x1A91 DUP3 PUSH2 0x1A4A JUMP JUMPDEST SWAP1 POP SWAP2 SWAP1 POP JUMP JUMPDEST PUSH1 0x0 PUSH2 0x1AA3 DUP3 PUSH2 0x1AAA JUMP JUMPDEST SWAP1 POP SWAP2 SWAP1 POP JUMP JUMPDEST PUSH1 0x0 PUSH2 0x1AB5 DUP3 PUSH2 0x1A4A JUMP JUMPDEST SWAP1 POP SWAP2 SWAP1 POP JUMP JUMPDEST PUSH32 0x4E487B7100000000000000000000000000000000000000000000000000000000 PUSH1 0x0 MSTORE PUSH1 0x11 PUSH1 0x4 MSTORE PUSH1 0x24 PUSH1 0x0 REVERT JUMPDEST PUSH32 0x4F776E65722063616E6E6F7420706C6163652061206269640000000000000000 PUSH1 0x0 DUP3 ADD MSTORE POP JUMP JUMPDEST PUSH32 0x4F776E61626C653A206E6577206F776E657220697320746865207A65726F2061 PUSH1 0x0 DUP3 ADD MSTORE PUSH32 0x6464726573730000000000000000000000000000000000000000000000000000 PUSH1 0x20 DUP3 ADD MSTORE POP JUMP JUMPDEST PUSH32 0x41756374696F6E2068617320616C726561647920656E64656400000000000000 PUSH1 0x0 DUP3 ADD MSTORE POP JUMP JUMPDEST PUSH32 0x41756374696F6E2068617320656E646564000000000000000000000000000000 PUSH1 0x0 DUP3 ADD MSTORE POP JUMP JUMPDEST PUSH32 0x436865636B2074686520746F6B656E20616C6C6F77616E636500000000000000 PUSH1 0x0 DUP3 ADD MSTORE POP JUMP JUMPDEST PUSH32 0x4E6F206269647320726563656976656400000000000000000000000000000000 PUSH1 0x0 DUP3 ADD MSTORE POP JUMP JUMPDEST PUSH32 0x4F776E61626C653A2063616C6C6572206973206E6F7420746865206F776E6572 PUSH1 0x0 DUP3 ADD MSTORE POP JUMP JUMPDEST PUSH32 0x41756374696F6E20697320636C6F736564000000000000000000000000000000 PUSH1 0x0 DUP3 ADD MSTORE POP JUMP JUMPDEST PUSH32 0x426964206973206C6F776572207468616E207468652072657365727665207072 PUSH1 0x0 DUP3 ADD MSTORE PUSH32 0x6963650000000000000000000000000000000000000000000000000000000000 PUSH1 0x20 DUP3 ADD MSTORE POP JUMP JUMPDEST PUSH2 0x1CB1 DUP2 PUSH2 0x1A2C JUMP JUMPDEST DUP2 EQ PUSH2 0x1CBC JUMPI PUSH1 0x0 DUP1 REVERT JUMPDEST POP JUMP JUMPDEST PUSH2 0x1CC8 DUP2 PUSH2 0x1A3E JUMP JUMPDEST DUP2 EQ PUSH2 0x1CD3 JUMPI PUSH1 0x0 DUP1 REVERT JUMPDEST POP JUMP JUMPDEST PUSH2 0x1CDF DUP2 PUSH2 0x1A6A JUMP JUMPDEST DUP2 EQ PUSH2 0x1CEA JUMPI PUSH1 0x0 DUP1 REVERT JUMPDEST POP JUMP INVALID LOG2 PUSH5 0x6970667358 0x22 SLT KECCAK256 0x25 SWAP16 MULMOD 0x1E SHR SHL 0x23 0xAE 0x2D 0xE6 0xA5 0x4E 0x2F 0xD2 0xBD DUP15 PUSH14 0x48F113453B522B7713FB57AF6DF4 TIMESTAMP PUSH5 0x736F6C6343 STOP ADDMOD DIV STOP CALLER "},"methodIdentifiers":{"auctionDuration()":"0cbf54c8","auctionEnded()":"86433374","bid(uint256)":"454a2ab3","bidToken()":"dfafd4fd","bids()":"cc996d1b","endAuction()":"fe67a54b","getCurrentBlockNumber()":"6fd902e1","getCurrentPrice()":"eb91d37e","highestBid()":"d57bde79","highestBidder()":"91f90157","nftToken()":"d06fcba8","nftTokenId()":"7e830574","numBlocksAuctionOpen()":"3103ea62","offerPriceDecrement()":"d3642a88","owner()":"8da5cb5b","renounceOwnership()":"715018a6","reservePrice()":"db2e1eed","startBlock()":"48cd4cb1","startPrice()":"f1a9af89","transferOwnership(address)":"f2fde38b"}}}}}